:020000040800F2
:10000000580900203D290008FD260008FF260008A9
:10001000012700080327000805270008000000004A
:10002000000000000000000000000000072700089A
:1000300009270008000000000B2700080D27000812
:100040005129000855290008592900085D29000890
:100050006129000865290008692900082D27000882
:100060006D29000871290008752900084D2700082E
:10007000792900087D2900088129000885290008C0
:1000800089290008AD160008432700088D290008BB
:100090009129000895290008992900089D29000840
:1000A000A1290008A5290008A9290008AD290008F0
:1000B000B3160008B1290008B5290008B9290008BD
:1000C000BD290008C1290008C5290008C929000860
:1000D000CD290008D1290008D5290008D929000810
:1000E00015270008DD290008E1290008F8B50400FB
:1000F000002C01D1012039E22078C00740F1848032
:10010000DFF87806006810F00C0004280BD0DFF848
:100110006C06006810F00C0008280ED1DFF85C06B1
:100120000068C00309D5DFF85006006880036BD56E
:100130006068002868D1012018E26068B0F5803F4F
:1001400008D1DFF83406006850F48030DFF8281654
:10015000086038E06068002810D1DFF81C060068ED
:1001600030F48030DFF810160860DFF80C06006805
:1001700030F48020DFF80016086024E06068B0F5F5
:10018000A02F10D1DFF8F005006850F48020DFF8D0
:10019000E8150860DFF8E005006850F48030DFF80B
:1001A000D81508600FE0DFF8D005006830F4803023
:1001B000DFF8C4150860DFF8C005006830F480205F
:1001C000DFF8B4150860606800280ED000F0F6FA79
:1001D0000500DFF8A4050068800315D400F0EEFAEE
:1001E000401B6528F5D30320C0E100F0E7FA0500C5
:1001F000DFF884050068800306D500F0DFFA401BB5
:100200006528F5D30320B1E1207880075CD5DFF8BD
:100210006C05006810F00C0F0BD0DFF8600500686B
:1002200010F00C0008281AD1DFF850050068C00350
:1002300015D4DFF844050068800704D5206901283B
:1002400001D0012092E1DFF83005006830F0F800BD
:10025000616950EAC100DFF82015086034E02069C8
:1002600000281ED00120DFF82815086000F0A6FA4B
:100270000500DFF804050068800706D400F09EFA48
:10028000401B0328F5D3032070E1DFF8EC0400687D
:1002900030F0F800616950EAC100DFF8DC14086052
:1002A00012E00020DFF8E814086000F087FA05008B
:1002B000DFF8C4040068800706D500F07FFA401B11
:1002C0000328F5D3032051E1207800072CD5A0693D
:1002D000002816D00120DFF8BC14086000F06EFA88
:1002E0000500DFF8A8040068800706D400F066FA6D
:1002F000401B0328F5D3032038E1012000F028FA41
:1003000012E00020DFF88C14086000F057FA0500B6
:10031000DFF878040068800706D500F04FFA401B2C
:100320000328F5D3032021E12078400740F1A8807D
:100330000027DFF864040068C00010D4DFF8580418
:10034000006850F08050DFF850140860DFF848046F
:10035000006810F080500090009801200700DFF83E
:100360003C040068C00516D4DFF83004006850F47F
:100370008070DFF82814086000F020FA0500DFF82C
:100380001C040068C00506D400F018FA401B65285C
:10039000F5D30320EAE0E068012808D1DFF8000483
:1003A000006850F00100DFF8F813086037E0E068FB
:1003B000002810D1DFF8E803006840084000DFF8AB
:1003C000E0130860DFF8D803006830F00400DFF8BD
:1003D000D013086023E0E068052810D1DFF8C003DF
:1003E000006850F00400DFF8B8130860DFF8B003CD
:1003F000006850F00100DFF8A81308600FE0DFF894
:10040000A003006840084000DFF894130860DFF89C
:100410009003006830F00400DFF884130860E0689F
:10042000002810D000F0CAF90500DFF87403006856
:10043000800719D400F0C2F9401B41F2893188428B
:10044000F3D3032092E000F0B9F90500DFF8500380
:100450000068800708D500F0B1F9401B41F28931EE
:100460008842F3D3032081E03800C0B2012807D1CD
:10047000DFF82403006830F08050DFF81C130860B8
:10048000E069002871D0DFF8F402006810F00C0079
:10049000082855D0E06902283FD10020DFF8041376
:1004A000086000F08BF90700DFF8CC0200688001DB
:1004B00006D500F083F9C01B0328F5D3032055E0CF
:1004C000206AB0F5803F09D1DFF8B002016831F44D
:1004D0000031A0680143DFF8A4020160DFF89C024C
:1004E000016831F47411206A0143606A0143DFF846
:1004F0008C0201600120DFF8AC12086000F05EF9A8
:100500000500DFF87402006880012ED400F056F96F
:10051000401B0328F5D3032028E00020DFF88412D5
:10052000086000F04BF90500DFF84C02006880011C
:100530001BD500F043F9401B0328F5D3032015E039
:10054000E069012801D1012010E0DFF830020068E5
:10055000060016F48030216A884204D116F4701027
:10056000616A884201D0012000E00020F2BD70B530
:1005700004000D00002C01D10120AFE0DFF82802BB
:10058000006810F00700A84211D2DFF81C020068D2
:10059000C008C0002843DFF810120860DFF8080226
:1005A000006810F00700A84201D0012096E02078F2
:1005B00080071FD52078400707D5DFF8C001006805
:1005C00050F4E060DFF8B41108602078000707D528
:1005D000DFF8A801006850F46050DFF8A01108604F
:1005E000DFF89801016831F0F001A0680143DFF8FD
:1005F0008C0101602078C00734D56068012806D1DD
:10060000DFF874010068800310D4012066E06068A0
:10061000022805D158480068800107D401205DE018
:1006200055480068800701D4012057E0534801680D
:1006300089088900606801435048016000F0BEF8F5
:1006400006004E48006810F00C006168B0EB810FA6
:1006500008D000F0B3F8801B41F289318842F0D312
:1006600003203BE05048006810F0070085420ED29E
:100670004D480068C008C00028434B4908604A48FC
:10068000006810F00700A84201D0012026E0207881
:10069000400707D53948016831F4E061E06801435B
:1006A000364801602078000708D53448006830F4E7
:1006B0006050216950EAC1003049086000F00FF82D
:1006C0003A492E4A1268C2F30312895CC8402D4988
:1006D00008602D48006800F077F8002070BD78B5FC
:1006E00085B001A83249102200F094F83148008802
:1006F000ADF80000002000210022002300241F4D3F
:100700002D6815F00C06042E02D0082E02D01CE035
:100710001B481BE001A8C5F38346805D0300E80386
:100720000DD56846154E3668C6F34046805D01001B
:10073000134800FB03F0B0FBF1F0020003E01E4899
:1007400000FB03F00200100000E00D4806B070BD91
:1007500081B00C490968C9084FF47A72B1FBF2F113
:1007600001FB00F1009100BF00994A1E0092002990
:10077000F9D101B07047000000100240041002409F
:1007800000127A0014000020100000202410024003
:1007900000004242800442421C10024000700040AF
:1007A0002010024060004242002002402C29000834
:1007B0001C290008EA13000800093D0001480068F0
:1007C000704700BF4C05002010B504004FF47A704C
:1007D0000D490978B0FBF1F00C490968B1FBF0F064
:1007E00000F01AF9002801D001200CE0102C09D2E9
:1007F000002221005FF0FF3000F0F2F804480460AE
:10080000002000E0012010BDFD03002014000020A6
:1008100010000020103A07D330B4B1E83810103A75
:10082000A0E83810F9D230BC530724BFB1E8081053
:10083000A0E8081044BF51F8043B40F8043BD2073D
:1008400024BF31F8022B20F8022B44BF0B78037031
:100850007047121F17D35B0009D151F8043B20F8F1
:10086000023B1B0C121F20F8023BF6D20BE051F8A2
:10087000043B00F8013B1B0A20F8023B1B0C121F33
:1008800000F8013BF3D238BF121D521E24BF11F8ED
:10089000013B00F8013BF8D8704730B50168846827
:1008A0004218416802EB5103C90703D54C4401E0EB
:1008B000491C08D19A4218BF12F9011B01D10C3012
:1008C00030BD12F8015B002904F8015BF0D4491E29
:1008D000F7D5EFE710F0070356490A684FF6FF0116
:1008E0000A4052EA032254490A4352490A607047B7
:1008F00050480068C0F302207047010049B2002947
:1009000009D4012210F01F018A404C4903005BB258
:100910005B0941F823207047010049B2002909D43E
:10092000012210F01F018A40454903005BB25B09B8
:1009300041F82320704710B4020052B2002A05D4B7
:100940000A01404B040064B21A5508E00A013E4B0C
:10095000040064B214F00F04234403F8042C10BC08
:10096000704770B4030013F00704D4F107000528A2
:1009700001D3042001E0D4F10700251D072D01D289
:10098000002500E0E51E012616FA00F0401E014099
:10099000A940012010FA05F56D1E2A4011430800F8
:1009A00070BC704710B50400601EB0F1807F01D3A9
:1009B00001200EE0601E254908600F215FF0FF3026
:1009C000FFF7B9FF0020224908600720214908608D
:1009D000002010BD10B504002000FFF77BFF10BD04
:1009E0002DE9F04104000D0016000027FFF780FFFD
:1009F0008046320029004046FFF7B3FF0100200087
:100A000040B2FFF798FFBDE8F08110B50400200068
:100A100040B2FFF772FF10BD10B504002000FFF7D1
:100A2000C1FF10BD10B50400200040B2FFF774FFF5
:100A300010BD00000CED00E00000FA0500E100E050
:100A400080E200E000E400E018ED00E014E000E0E7
:100A500018E000E010E000E02DE9F04104005FF054
:100A60000008002500260027002C01D1012093E07A
:100A7000A068002801D0207D0028A06A002807D1A6
:100A80000020E062002084F82400200000F01DFB1C
:100A9000200000F0B3FAA16AC90676D40100C9B2F9
:100AA000002972D1A16A31F4885151F00201A1628A
:100AB00061680E43E1690E43217B56EA4106A16855
:100AC000B1F5807F02D0A168012902D14FF4807175
:100AD00000E000210D43217D012911D1217B002956
:100AE00006D1A169491E55EA413555F4006507E074
:100AF000A16A51F02001A162E16A51F00101E162B5
:100B00002168496831F469412943226851602168AC
:100B10008A68DFF8C8140A40324321688A60A168F5
:100B2000B1F5807F02D0A168012902D14FF4807114
:100B300000E00021B1F5807F03D12169491E09053C
:100B40000F002168C96A31F4700139432268D1620B
:100B500021688A68DFF888140A40B24208D100216F
:100B6000E162A16A31F0020151F00101A16212E0DB
:100B7000A16A31F0020151F01001A162E16A51F065
:100B80000101E1620121080005E0A16A51F01001B4
:100B9000A16201210800C0B2BDE8F0812DE9F04159
:100BA00004000D00160000272068DFF8401488427A
:100BB00004D02068DFF82C14884205D1DFF828041F
:100BC000006810F4702000E00020002840F09B80B6
:100BD00094F82400012801D1022098E0012084F833
:100BE0002400200000F0C1F980464046C0B2002831
:100BF00040F08580A16ADFF8FC03014051F4807168
:100C0000A1622068DFF8DC13884209D1DFF8D8033D
:100C1000006810F4702F01D1012002E0002000E0F4
:100C2000012000280ED0A06A30F48010A062206855
:100C30004068400523D5A06A30F4005050F480503D
:100C4000A0621CE0A06A50F48010A0622068DFF867
:100C50009C13884204D02068DFF88813884205D1AD
:100C6000DFF88403006810F4806000E000200028B2
:100C700005D0A06A30F4005050F48050A062A06A01
:100C8000C00404D5E06A30F00600E06201E0002014
:100C9000E062002084F824000FF2AD30216A8862FF
:100CA0000FF2F930216AC8620FF20140216A08632D
:100CB0007FF00200216808602068806850F480702E
:100CC0002168886033002A00206810F14C01206AF6
:100CD00000F02FFA2068806810F46020B0F5602FD3
:100CE00006D12068806850F4A000216888600CE07C
:100CF0002068806850F480102168886005E000203A
:100D000084F8240001E05FF001084046C0B2BDE86D
:100D1000F08110B504002068406880062CD520685A
:100D20000068800728D5A06AC00603D4A06A50F4E2
:100D30000070A0622068806810F46020B0F5602F19
:100D400013D1207B002810D12068406830F02000AB
:100D500021684860A06A30F48070A062A06AC00474
:100D600003D4A06A50F00100A062200000F038FB1C
:100D70007FF012002168086020684068000637D5BF
:100D800020680068400733D5A06AC00603D4A06A73
:100D900050F40050A0622068806810F4E040B0F584
:100DA000E04F0DD02068406840051AD42068806864
:100DB00010F46020B0F5602F13D1207B002810D1F3
:100DC0002068406830F0800021684860A06A30F4F4
:100DD0008050A062A06AC00503D4A06A50F0010050
:100DE000A062200000F0FDFA7FF00C00216808608E
:100DF0002068406840060ED520680068C0070AD504
:100E0000A06A50F48030A062200000F0EBFA7FF07E
:100E100001002168086010BD78B4020000230020A2
:100E2000009092F82400012801D102209BE00120CB
:100E300082F824004868072812D21068446B1F25E6
:100E40004868461E05204643B540AC430D684868D7
:100E5000461E05204643B5402C431068446329E0F4
:100E600048680D2812D21068046B1F254868C61FF9
:100E700005204643B540AC430D684868C61F0520B1
:100E80004643B5402C431068046313E01068C46AFD
:100E90001F254868B0F10D0605204643B540AC4318
:100EA0000D684868B0F10D0605204643B5402C4357
:100EB0001068C46208680A2814D31068C46807253B
:100EC0000868B0F10A0603204643B540AC438D687C
:100ED0000868B0F10A0603204643B5402C43106869
:100EE000C4600FE01068046907250E6803204643BC
:100EF000B540AC438D680E6803204643B5402C4393
:100F0000106804610868102802D00868112825D1EB
:100F10001068364CA0421BD11068806800021DD4B6
:100F20001068806850F400001468A06008681028F9
:100F300014D12F480068304CB0FBF4F40A2044432D
:100F400000940098002809D00098401E0090F8E70F
:100F5000906A50F02000906201200300002082F887
:100F600024001800C0B272BC704738B504000025D8
:100F70000020009020688068C0072BD4206880681B
:100F800050F0010021688860194800681A49B0FBD8
:100F9000F1F000900098002803D00098401E0090C7
:100FA000F8E7FFF70BFC050020688068C00711D444
:100FB000FFF704FC401B0328F6D3A06A50F0100092
:100FC000A062E06A50F00100E062002084F8240092
:100FD000012000E0002032BD00000000FDF7E1FF2D
:100FE000FE0E1FFF002801400424014000240140A0
:100FF00014000020FEF1FFFF40420F0038B504004E
:10100000002520688068C0071BD5206880684008DC
:10101000400021688860FFF7D1FB050020688068E8
:10102000C0070ED5FFF7CAFB401B0328F6D3A06A02
:1010300050F01000A062E06A50F00100E062012070
:1010400000E0002032BD000038B50400656AA86ADF
:1010500010F0500F1CD1A86A50F40070A8622868E4
:10106000806810F46020B0F5602F0DD1287B002837
:101070000AD1A86A30F48070A862A86AC00403D4B8
:10108000A86A50F00100A862280000F0A9F903E066
:101090002000296A096B884731BD000038B504007B
:1010A000656A280000F09FF931BD000038B50400E2
:1010B000656AA86A50F04000A862E86A50F004002F
:1010C000E862280000F090F931BD7047010000226D
:1010D000002901D101202BE00B68DFF85802C3186A
:1010E0001420B3FBF0F080000864DFF84C02C86302
:1010F000022081F82100086803686FF30D13486827
:10110000034388680343C868034308690343486985
:10111000034388690343C8690343086803600020E8
:101120008863012081F82100002081F82000002040
:1011300070472DE9F04104000D0016001F005FF01C
:10114000000894F82000012801D102203BE0012092
:1011500084F8200094F8210001282DD1022084F881
:1011600021000020A063206800684008400021683A
:1011700008603B0032002900200000F01BF9E06A03
:10118000002806D02068006850F00E002168086032
:101190000BE02068006830F00400216808602068D7
:1011A000006850F00A00216808602068006850F06C
:1011B00001002168086004E0002084F8200002207B
:1011C00080464046C0B2BDE8F08170B50400E06BD7
:1011D0000568206806680421206C81400D423ED0DD
:1011E00070073CD520680068800605D42068006838
:1011F00030F004002168086020685049884201D11D
:10120000042023E020684E49884201D140201DE09F
:1012100020684C49884202D14FF4806016E0206873
:101220004949884202D14FF480400FE02068474985
:10123000884202D15FF4802008E020684449884257
:1012400002D15FF4800001E05FF0806041490860F6
:10125000E06A00286DD02000E16A884769E0022139
:10126000206C81400D4244D0B00742D52068006810
:10127000800608D42068006830F00A002168086001
:10128000012084F8210020682C49884201D10220E5
:1012900023E020682A49884201D120201DE02068EF
:1012A0002849884202D14FF4007016E02068264990
:1012B000884202D14FF400500FE020682349884251
:1012C00002D15FF4003008E020682149884202D151
:1012D0005FF4001001E05FF000701E49086000201C
:1012E00084F82000A06A002823D02000A16A884743
:1012F0001FE00821206C81400D421AD0300718D51C
:101300002068006830F00E00216808600121206C20
:101310008140E06B41600120A063012084F821003E
:10132000002084F82000206B002802D02000216BD0
:10133000884770BDF8FFFDBF000002400800024072
:101340001C000240300002404400024058000240AD
:101350006C0002400400024010B40300002493F823
:101360002000012801D1022022E0012083F8200082
:1013700093F82100012814D10800C0B2002805D03C
:10138000022807D004D3032806D007E09A620AE0B7
:10139000DA6208E01A6306E05A6304E00120040000
:1013A00001E001200400002083F820002000C0B2EA
:1013B00010BC704730B40125046CA540C46B656057
:1013C000046863604468102C04D10468A260046857
:1013D000E16003E00468A1600468E26030BC70472B
:1013E0007047704770477047704701022DE9F04120
:1013F00090B0DFF85484D8F8FC0F40F00400C8F82F
:10140000FC0FD8F8FC0F00F00400009000980120B9
:101410000090019003200390002002906946DFF8BD
:101420002C0400F027FAD8F8F80F40F00100C8F8B3
:10143000F80FD8F8F80F00F0010000900098DFF8DE
:101440001044C4F80080102060600020A060E060BC
:10145000A0614FF4807626614FF4806767614FF496
:101460000055E5612046FFF731FE002840F08C80F2
:1014700008F13C0060641020A0640020E06480203B
:1014800020650020E0656665A765256604F14400D7
:10149000FFF71CFE002877D108F16400C4F888002B
:1014A0001020C4F88C000020C4F89000C4F8940008
:1014B000C4F8A000C4F89860C4F89C70C4F8A450A4
:1014C00004F18800FFF702FE00285DD10FF221220F
:1014D000002104F18800FFF73FFF0FF29122022163
:1014E00004F18800FFF738FF012200211120FFF7E7
:1014F00077FA1120FFF789FAD648016841F0010117
:101500000160006800F00100009000984FF08040FA
:10151000C4F89C031D20C4F8A803CF480068CF4935
:10152000B0FBF1F0401E80B2C4F8A0030020C4F864
:10153000AC03C4F8A40304F5677000F0CFFA18BB3D
:1015400008900A9008200990002208A904F5677005
:1015500000F034FBC0B901900390152002900422E2
:1015600001A904F5677000F029FB68B90222002187
:101570001C20FFF735FA1C20FFF747FA042084F8F7
:10158000E40310B0BDE8F081012084F8E40310B05A
:10159000BDE8F08170B5AE4C94F8E4030428FBD1AB
:1015A000022084F8E4034FF080411D20C86201222C
:1015B000206C02FA00F0E36B586023684FF4B475B6
:1015C0005D606068102803D1A5489860A7A002E07C
:1015D000A6A09860A248D860D4F8840002FA00F06F
:1015E000D4F880607060666C7560A06C102804D1BF
:1015F0009B48B06004F1CC0003E004F1CC00B06083
:101600009748F060D4F8C8008240D4F8C400426023
:10161000D4F888004560D4F88C20102A04D1904A70
:10162000826000BF92A202E091A282608C4AC260F6
:101630008C4AF02515604FF4702515604FF07065E9
:101640001560026842F00E0202601A6842F0010260
:101650001A60326842F001023260026842F0010210
:10166000026000200861D4F89C03C16841F48071D5
:10167000C160C16841F40071C160C16841F480611A
:10168000C160012200214FF0804000F0B3FB012235
:1016900004214FF0804000F0ADFBD4F89C031D21E5
:1016A0004162016841F00101016070BD6E48FFF7C1
:1016B0008CBD00B581B01C20FFF7B4F96448D0F8A8
:1016C0009C130A6A41F211131A4202BF0A6A40F2DD
:1016D00044431A4203D10A68520852000A60CA6899
:1016E00052085200CA60042180F8E41301B000BD22
:1016F00010B51120FFF796F9554C2068016849088C
:1017000049000160606C0168490849000160D4F833
:1017100088000168490849000160D4F89C03C16849
:1017200021F48071C160C16821F40071C160C16899
:1017300021F48061C160002200214FF0804000F060
:1017400059FB002204214FF0804000F053FB4FF082
:10175000804040F2DC51C16200214162D4F89C0318
:10176000C16841F00101C16010BD0000FEE700004A
:10177000DFF8DC0090F8E4130429FBD100F1CC027F
:101780000F214FF6FE7C042013880CEA030313801C
:10179000138A0CEA03031382138C0CEA03031384E9
:1017A00053880CEA03035380538A0CEA03035382E1
:1017B000538C0CEA03035384121D401EE4D12032E3
:1017C000491EE0D17047002800D07047F0B40F29BF
:1017D0001F4890F8E44335D2042CFDD1002401EBDE
:1017E0004105E90000EB410000F1CC0104980D88AF
:1017F0004FF6FE7635400D800E8A4FF6FE773E405E
:101800000E820F8C4FF6FE7C0CEA07070F8403FA5A
:1018100004FC4FEAEC1C0CF0010C4CEA05050D80B1
:1018200002FA04F5ED1105F001052E430E8200FACF
:1018300004F5ED1105F001052F430F84641C891C8C
:10184000082CD4DBF0BC70471C00024000080140AB
:10185000180000201C1002401400002000366E0109
:101860000C08014004000240A0000020FFFF00001F
:10187000000000002DE9F84302005FF0000E5FF069
:101880000008086830FA0EF0002800F004810120FA
:1018900010FA0EF003000868184004009C4240F063
:1018A000F7804868002831D0012820D0022825D0B0
:1018B00003283CD011281DD0122823D0DFF8DCC12A
:1018C000604523D0DFF8D8C160451FD0DFF8D4C110
:1018D00060451BD0DFF8D0C1604517D0DFF8CCC120
:1018E000604513D0DFF8C8C160450FD022E0C8685A
:1018F00080461FE0C868001D80461BE0C8680830AD
:10190000804617E0C8680C30804613E088680028DD
:1019100002D10420804609E08868012803D108200C
:101920008046136102E008208046536102E00020F7
:101930008046FFE7B4F5807F01D2160000E0161D57
:10194000B4F5807F02D25FEA8E0702E0BEF108079D
:10195000BF00D6F800C00F20B8403CEA000C18FACF
:1019600007F050EA0C0CC6F800C04868C00040F10F
:101970008F805048006850F00100DFF838C1CCF883
:1019800000004C48006810F00100009000984A48A0
:10199000F4465FEA9C0C50F82CC05FF00F091EF073
:1019A0000300C0B2800019FA00F93CEA090C434870
:1019B000824202D15FF0000913E04148824202D125
:1019C0005FF001090DE03F48824202D15FF0020959
:1019D00007E03D48824202D15FF0030901E05FF079
:1019E000040965461EF00300C0B2800019FA00F930
:1019F00059EA05053048F4465FEA9C0C40F82C5043
:101A00004868C00307D5314800682043DFF8BCC0F0
:101A1000CCF8000006E02D480068A043DFF8ACC019
:101A2000CCF800004868800307D5294800682043A7
:101A3000DFF89CC0CCF8000006E025480068A04311
:101A4000DFF88CC0CCF800004868C00207D52148F8
:101A500000682043DFF87CC0CCF8000006E01D4899
:101A60000068A043DFF86CC0CCF800004868800232
:101A700007D5194800682043DFF85CC0CCF80000A7
:101A800006E015480068A043DFF84CC0CCF8000021
:101A90001EF1010EF5E6BDE8F18300000000111013
:101AA0000000121000002110000022100000311070
:101AB00000003210181002400800014000080140E8
:101AC000000C0140001001400014014000040140DE
:101AD00004040140080401400C04014010B5040056
:101AE000002C01D101202FE094F83D00002805D101
:101AF000002084F83C00200000F08EF9022084F8D9
:101B00003D00211D206800F089F8012084F846007E
:101B1000012084F83E00012084F83F00012084F871
:101B20004000012084F84100012084F84200012097
:101B300084F84300012084F84400012084F8450023
:101B4000012084F83D00002010BD010091F83D0007
:101B5000012801D001202AE0022081F83D00086818
:101B6000DFF84C3098420DD00868B0F1804F09D0B2
:101B70000868DFF84030984204D00868DFF8383051
:101B800098420DD10868806810F007000200062A0C
:101B90000CD00868006850F001000B68186005E080
:101BA0000868006850F001000B681860002070475A
:101BB000002C0140000400400008004070B5040003
:101BC0000D00160094F83C00012801D1022024E009
:101BD000012084F83C003000002806D0042809D0F9
:101BE00008280CD00C280FD013E02900206800F042
:101BF00047F80EE02900206800F06FF809E029009E
:101C0000206800F09CF804E02900206800F0C8F883
:101C1000FFE7002084F83C00002070BD0368724A92
:101C2000904208D0B0F1804F05D0704A904202D067
:101C30006F4A904203D133F070034A6813436A4AF3
:101C4000904208D0B0F1804F05D0684A904202D04F
:101C5000674A904203D133F44073CA68134333F0A8
:101C600080034A69134303608A68C2620A68826219
:101C70005D4A904201D10A690263012242617047C4
:101C800030B4026A520852000262046A45688369ED
:101C900033F070039B089B000A68134334F002047E
:101CA0008A681443504A904205D134F00804CA6847
:101CB000144334F004044C4A904207D135F4807543
:101CC00035F400754A6915438A6915434560836197
:101CD0004A684263046230BC704730B4026A32F032
:101CE00010020262036A4468826932F4E04232F40C
:101CF00040720D6852EA052233F020038D6853EAE2
:101D00000513394DA84206D133F08003CD6853EA5C
:101D1000051333F04003344DA84209D134F48064F4
:101D200034F400644D6954EA85048D6954EA8504ED
:101D3000446082614D688563036230BC704730B493
:101D4000026A32F480720262046A4568C36933F041
:101D500070039B089B000A68134334F400748A687C
:101D600054EA0224204A904206D134F40064CA683E
:101D700054EA022434F480641B4A904209D135F4B9
:101D8000805535F400554A6955EA02158A6955EAC5
:101D900002154560C3614A68C263046230BC704783
:101DA00030B4026A32F480520262036A4468C26943
:101DB00032F4E04232F440720D6852EA052233F404
:101DC00000538D6853EA0533074DA84204D134F41B
:101DD00080444D6954EA85144460C2614D680564CD
:101DE000036230BC70470000002C0140000400403A
:101DF0000008004030B4012411F01F0314FA03F36B
:101E0000046A9C430462046A11F01F0512FA05F586
:101E10002C43046230BC70477047000080B500F06E
:101E20001CF8002801D0012016E000F0C4F80028BA
:101E300001D0012010E08748FFF787FE002801D07D
:101E4000012009E0402284498448FEF7A7FE0028CB
:101E500001D0012000E0002002BD80B58CB010222E
:101E6000002108A800F010F90C22002101A800F0C0
:101E70000BF91022002104A800F006F97848006848
:101E800050F40070764908607548006810F40070DE
:101E9000009000987248006850F00800704908608F
:101EA0006F48006810F0080000900098012008902A
:101EB0000320099008A96B48FFF7DCFC6A486749D2
:101EC000086000206549486000206449886000205F
:101ED0006249087301206149086100205F49087563
:101EE00001205E4988615FF400205C49C8615B485D
:101EF000FEF7B2FD002801D001205AE00820019031
:101F0000012002900020039001A95448FEF784FFAD
:101F1000002801D001204CE0022004904FF4004042
:101F2000069004A800F0BAF85048006850F001008C
:101F30004E4908604D48006810F00100009000987C
:101F40004B484C49086000204A49486000204949F4
:101F5000886080204749C8604FF480704549086117
:101F60004FF48060434948612020424988614FF422
:101F700000504049C8613F48FFF7A8F8002801D049
:101F8000012016E03B483549086234483949486227
:101F9000002203210B20FEF723FD0B20FEF735FD69
:101FA000002202211220FEF71BFD1220FEF72DFD5C
:101FB00000200DB000BD1FB52F48006850F0020092
:101FC0002D4908602C48006810F00200009000982D
:101FD0002A4800682A49B0FBF1F0441E29481D49EF
:101FE000086009201B49C860200080B21949486078
:101FF0000020184908610020164988600020154912
:1020000048610020134988611248FFF767FD0028E6
:1020100001D001200CE0202001900020029001A9B5
:102020000C4800F0CDF8002801D0012000E000208D
:1020300004B010BD0022110089B2402907D2064920
:1020400013009BB231F813100818521CF3E78009F3
:102050007047000080040020000400200C050020D0
:1020600018100240000C01400024014014100240EE
:1020700008000240C80400201C1002401400002088
:10208000803801000004004010B5044610460A469E
:102090000146204600F0D2F8204610BDF8B50500F4
:1020A000002600242878C00767D500273F4800682D
:1020B000C0000DD43D48006850F080503B49086096
:1020C0003A48006810F08050009000980120070006
:1020D00037480068C00513D43548006850F4807054
:1020E00033490860FEF76AFB060031480068C00506
:1020F00006D4FEF763FB801B6528F6D3032053E06C
:102100002C48006810F440700400002C23D068684C
:1021100010F4407084421ED02648006830F44070AD
:102120000400012024490860002023490860214858
:102130000460E0070FD5FEF741FB06001D4800686C
:10214000800708D4FEF73AFB801B41F289318842B0
:10215000F4D3032028E01748016831F4407168681F
:102160000143144801603800C0B2012805D10F486E
:10217000006830F080500D4908602878800707D546
:102180000E48016831F44041A86801430B480160E2
:102190002878C00607D50948016831F48001E8684D
:1021A0000143064801600020F2BD00001C100240FF
:1021B00000700040201002404004424204100240DF
:1021C00030B4020092F83C00012801D102202CE03A
:1021D000012082F83C00022082F83D00106843682C
:1021E0001068846833F07003086803431068436024
:1021F00010680F4DA8420BD01068B0F1804F07D087
:1022000010680C4DA84203D010680B4DA84205D1B0
:1022100034F080044868044310688460012082F828
:102220003D00002082F83C00002030BC70470000D8
:10223000002C0140000400400008004062F30F221F
:1022400062F31F42401810F0030308D0C91A1FD3CD
:10225000DB0748BF00F8012D28BF20F8022D13002E
:1022600030B414461546103928BF20E93C00FAD88E
:10227000490728BF20E90C0048BF40F8042D890019
:1022800028BF20F8022D48BF00F8012D30BC704750
:10229000C91818BF00F8012DCB0728BF00F8012D81
:1022A0007047000000205149887100204F49A1F873
:1022B000070000204D49487100204C4908714C48E6
:1022C0004A49097911F0030150F821004749086093
:1022D0000020704738B504002000C0B20F285ED23D
:1022E000424844714148807940494979884209D23D
:1022F0003E4840793D4988714FF4FA703B49A1F856
:10230000070015E03948B0F80700002807D0374823
:10231000B0F80700401E3549A1F8070008E033482F
:102320008079002804D031488079401E2F49887177
:10233000FFF71EFA002528002100C0B2C9B288426A
:1023400021D22A4801682A00D2B20320424301EB7D
:10235000020080780090254801682A00D2B203204C
:10236000424301EB02004378204801682A00D2B2C0
:10237000032042438A5C2900C9B289B20020FFF7DA
:1023800022FA6D1CD7E7002000900023FF22174897
:10239000817989B20020FFF716FAFFF7FBF831BD0B
:1023A00012480079401C1149087111480F490979F8
:1023B00011F0030150F821000C490860704780B506
:1023C00040F2DD51884203D3A0F2DC50010000E06E
:1023D0000021080000F010F80649096800F01AF81A
:1023E00000F084F8C0B202BD000000003C050020EF
:1023F000000000204C29000850B1B0FA80F188405C
:10240000C1F19D01C905020672F1004241EB1020A5
:1024100070470000FF2212EAD05C1DBF12EAD153C0
:10242000944593422BE09C44D30780EA010243EA9F
:10243000002043EA01211A40A1FB0030C04238BF0E
:1024400000187CF17F010BDBFE294ADA5B0842EAC7
:10245000C15153EA006373F1004C51EB10207047F7
:10246000D1F1080CDCF120012FDB5B0810FA01F13F
:102470000B4320FA0CF073F1004150417047944532
:102480001CBF02EAD153934280EA010202F00042EB
:102490001DD0400019D0490017D05BB9634514D056
:1024A0000902B1FA81F39940BCEB030CC00140F082
:1024B0000040C1E70002B0FA80FC10FA0CF0B3EB68
:1024C0000C0CC90141F00041B6E710007047400014
:1024D0000AD0490008D010F1807F94BF11F1807FAD
:1024E00002E042F0FF407047D0437047C0F3C7514D
:1024F000D1F19E0108DD020242F00042CA4002EB27
:10250000E07282EAE07070477FEAE07080F000409D
:102510007047000080B500F07BF800F01CF800F078
:1025200053F8FEF763FFFFF7BDFE00F085F8FFF7F5
:1025300075FCFFF77FFD3249086031480068FFF7FE
:102540003EFF304908702F480078FFF7C3FE012096
:1025500000F0A0F8EDE700B58FB02822002105A813
:10256000FFF792FD142200216846FFF78DFD012040
:1025700005905FF4803006900020079001200990BC
:1025800002200C905FF480300D905FF4E0100E900C
:1025900005A8FDF7ABFD002801D000F037F80F20AB
:1025A000009002200190002002904FF48060039080
:1025B0000020049002216846FDF7D9FF002801D0D1
:1025C00000F024F80FB000BD81B00F48006850F053
:1025D00010000D4908600C48006810F010000090D1
:1025E00000980948006850F0200007490860064834
:1025F000006810F020000090009801B070470000C3
:1026000048050020500500201810024072B6FEE771
:1026100080B50848006850F01000064908600320A3
:10262000FEF7D8F90020FEF7CFF800F047F80020B9
:1026300002BD00000020024000B585B010480068CF
:1026400050F008000E4908600D48006810F00800BE
:10265000009000984FF4006001900A48029000201A
:10266000039001A90848FFF705F90022002128205E
:10267000FEF7B6F92820FEF7C8F905B000BD000046
:102680001810024000002110000C014080B5FFF737
:1026900087FE01BD70B50400FEF790F80500260026
:1026A00016F1010F02D0044800788619FEF786F86B
:1026B000401BB042FAD370BDFD03002081B00D482D
:1026C000006850F001000B4908600A48006810F0EB
:1026D0000100009000980848006850F080500649BA
:1026E00008600548006810F080500090009801B024
:1026F000704700BF181002401C100240FEE7FEE7C2
:10270000FEE7FEE7FEE770477047704780B500F0D0
:1027100027F801BD80B510480068000505D54FF4C5
:1027200000600D490860FFF7B1FF01BD80B50A48A0
:102730000068800704D5022007490860FFF7A6FF5C
:1027400001BD80B50548FEF7E4FA01BD80B5034838
:10275000006AFEF73AFD01BD140401400C0500209B
:102760000348016803480078411801480160704738
:102770004C050020FD03002030B4002512E050F885
:10278000042BD30744BF4A44521E091F042942F8B0
:10279000045BFAD213468C0744BF15809B1CC90703
:1027A00048BF1D7050F8041B0029E8D130BC7047A9
:1027B00000FF0000FF0000FF0000FF0000FF00001E
:1027C000FF0000FF0000FF0000FF0000FF00FF808F
:1027D00000FF8000FF8000FF8000FF00000000007D
:1027E000FF0000FF0000FF0000FF0000FF0000FFEF
:1027F0000000FF0000FF0000FF0000FF0000FF00DE
:1028000000FF0000FF0000FF0000FF0000000000CC
:1028100000FF0000FF0000FF0000FF0000FF0000BD
:10282000FF0000FF0000FF0000FF0000FF0000FFAE
:102830000000FF0000FF0000FF0000FF000000009C
:102840000000FF0000FF0000FF0000FF0000FF008D
:1028500000FF0000FF0000FF0000FF0000FF00007D
:10286000FF0000FF0000FF0000FF0000FF0000006D
:1028700010B5074979441831064C7C44163404E0FD
:102880000A68081D114488470146A142F8D110BDCD
:102890000800000024000000E1FEFFFF54010000DA
:1028A0000004002000000000F3DFFFFF3A010000F9
:1028B000540000000000002000F00DF8002801D0B6
:1028C000FFF7D6FFAFF300800020AFF30080FFF7E3
:1028D00021FE00F002F80120704700F001B800006E
:1028E0000746384600F002F8FBE7000080B5AFF37A
:1028F0000080024A11001820ABBEFBE72600020050
:102900000548014603B4684680F30988AFF30080A8
:10291000AFF30080FFF7D0FFA5EDF5FE020304053D
:10292000060708090A0B0C0D0E0F1010000000001E
:10293000000000000102030406070809014880475F
:1029400001480047E5290008012900081069BD3B3E
:10295000FFF7FEBFFFF7FEBFFFF7FEBFFFF7FEBFAB
:10296000FFF7FEBFFFF7FEBFFFF7FEBFFFF7FEBF9B
:10297000FFF7FEBFFFF7FEBFFFF7FEBFFFF7FEBF8B
:10298000FFF7FEBFFFF7FEBFFFF7FEBFFFF7FEBF7B
:10299000FFF7FEBFFFF7FEBFFFF7FEBFFFF7FEBF6B
:1029A000FFF7FEBFFFF7FEBFFFF7FEBFFFF7FEBF5B
:1029B000FFF7FEBFFFF7FEBFFFF7FEBFFFF7FEBF4B
:1029C000FFF7FEBFFFF7FEBFFFF7FEBFFFF7FEBF3B
:1029D000FFF7FEBFFFF7FEBFFFF7FEBFFFF7FEBF2B
:1029E000FFF7FEBF704710B0270008E0270008106F
:1029F0002800084028000810FC000124F481008110
:102A000000810081008100810081009400010501A6
:0400000508002901C5
:00000001FF
