:020000040800F2
:10000000E808002081230008692100086B2100080E
:100010006D2100086F210008712100080000000018
:100020000000000000000000000000007321000834
:1000300075210008000000007721000879210008E0
:10004000992300089D230008A1230008A523000888
:10005000A9230008AD230008B12300088D21000862
:10006000B5230008B9230008BD230008A721000814
:10007000C1230008C5230008C9230008CD230008B8
:10008000D1230008E5110008A1210008D5230008AC
:10009000D9230008DD230008E1230008E523000838
:1000A000E9230008ED230008F1230008F5230008E8
:1000B000EB110008F9230008FD23000801240008C3
:1000C00005240008092400080D2400081124000854
:1000D00015240008192400081D2400082124000804
:1000E0007D2100082524000829240008F8B50446CD
:1000F00000260025002C00F08D80A06A28B9E5625A
:1001000084F82400204600F0A6FA20688168CA0717
:1001100019D5816849084900816000F09DFA0746B9
:1001200020688168C8070ED500F096FAC01B022827
:10013000F6D9A06A40F01000A062E06A40F0010029
:10014000E062012000E00020A16ACA065ED401003E
:100150005CD1A16A21F4885141F00201A162636877
:10016000E269217B1343A268B2F5807F14BF012AA4
:100170004FF48076227D012A43EA41030FD131B941
:10018000A169491E46EA413646F4006607E0A16AC5
:1001900041F02001A162E16A41F00101E1622168C0
:1001A0004A6822F4694216434E602268DFF8D81389
:1001B00096680E401E439660A168B1F5807F18BF17
:1001C000012902D125696D1E2D052168CA6A22F414
:1001D00070021543CD62DFF8B4132568AA680A409F
:1001E0009A4208D10023E362A16A21F0020141F0A2
:1001F0000101A162F2BDA06A20F0020040F01000EF
:10020000A062E06A40F00100E06203E0A06A40F012
:100210001000A0620120F2BDF8B504460E46206829
:10022000DFF87C13174688421CBFDFF86423904236
:1002300005D1DFF86003016811F4702F75D194F8CF
:100240002400012801D10220F2BD012084F82400FD
:10025000204600F065F9050063D1A16ADFF83C0390
:10026000014041F48071A1622068DFF824138842C4
:100270001AD1DFF820130A6812F4702F14D0A06A84
:1002800040F48010A0620968480505D5A16A21F4F0
:10029000005141F48051A162A06AC10446BFE06AE6
:1002A00020F0060000200DE0A16A21F48011A16277
:1002B00040684105F0D5A06A20F4005040F4805019
:1002C000A062E9E7E062002184F824103B46216A3D
:1002D0000FF21D308862216A0FF25D30C862216A18
:1002E0000FF25D3008636FF0020022681060324642
:1002F0002068816841F480718160206800F14C01C0
:10030000206A00F0DBF92068816801F46021B1F512
:10031000602F81680CBF41F4A00141F4801181601D
:1003200004E0002084F8240000E001252846F2BD06
:1003300010B5044621684868820628D50B689A07DC
:1003400025D5A06AC20603D4A06A40F40070A0625A
:10035000886800F46020B0F5602F04BF207B00287F
:100360000ED1486820F020004860A06A20F4807018
:10037000A062A06AC10403D4A06A40F00100A06298
:10038000204600F0B9FA21686FF012000860216879
:100390004868020631D50B685A072ED5A06AC206F6
:1003A00003D4A06A40F40050A062886800F4E040E2
:1003B000B0F5E04F0BD04868420517D4886800F4C8
:1003C0006020B0F5602F04BF207B00280ED1486864
:1003D00020F080004860A06A20F48050A062A06AEB
:1003E000C10503D4A06A40F00100A062204600F0DD
:1003F00084FA21686FF00C0008602268506841069A
:100400000DD51268D1070AD5A06A40F48030A062E9
:10041000204600F073FA21686FF00100086010BDFB
:10042000F8B4024608460021009192F82440012CBD
:1004300008BF022072D0012382F824301F264368AF
:1004400004681568072B0AD25B1E03EB83036F6BEE
:100450009E4027EA06069C4034436C6316E00D2B51
:100460000AD2DB1F03EB83032F6B9E4027EA0606AD
:100470009C4034432C6309E00D3B03EB8303EF6A9C
:100480009E4027EA06069C403443EC620726056836
:10049000836814680A2D0AD30A3D05EB4505E76811
:1004A000AE4027EA0606AB403343E36008E005EBC5
:1004B00045052769AE4027EA0606AB403343236172
:1004C0000368102B18BF112B24D11368344CA3429E
:1004D0001BD1344B1D682C021CD41D6845F400054B
:1004E0001D600068102815D12B4B2F4C1868B0FBED
:1004F000F4F404EB84056D000095009800281EBFFD
:100500000098401E0090F8D104E00121906A40F06C
:1005100020009062002082F824000846F2BC704758
:1005200038B504460020009020688168CA0729D4A5
:1005300081681D4A41F00101816017480168B1FBE3
:10054000F2F2009202E00098401E0090009800280D
:10055000F9D100F081F8054620688168C80711D4F8
:1005600000F07AF8401B0328F6D3A06A40F0100090
:10057000A0620021E06A40F00100E06284F82410EB
:10058000012032BD002032BDFDF7E1FFFE0E1FFF4E
:10059000002801400424014030000020FEF1FFFF4C
:1005A000002401400824014040420F0038B50446B1
:1005B00020688168CA0719D58168490849008160A7
:1005C00000F04AF8054620688168C8070ED500F09B
:1005D00043F8401B0328F6D3A06A40F01000A06245
:1005E000E06A40F00100E062012032BD002032BD2F
:1005F000416A8A6A12F0500F1BD1886A40F4007079
:1006000088620A68906800F46020B0F5602F04BF2B
:10061000087B00280AD1886A20F480708862886A82
:10062000C20403D4886A40F001008862084600F0E2
:1006300063B9096A0A6B1047406A00F060B90000AC
:10064000406A816A41F040018162C16A41F004015F
:10065000C16200F055B9704701484068704700BF5B
:100660002400002008B9012070470268DFF81C123E
:100670008A181423B2FBF3F3DFF81412C1639B0052
:100680000222036480F8212001680B6841688268B7
:10069000D0F800C06FF30D130B43C1681343026918
:1006A0000B434169134382690B43C16913430B43F5
:1006B000CCF8003000228263012147E0F0B490F8CA
:1006C00020500024012D08BF02203DD090F8216069
:1006D0000125012E80F8205032D1022580F82150CA
:1006E0008463012605682F687F087F002F60056CF2
:1006F000C76BAE407E6005686B604368102B04D109
:100700000568AA600268D16003E003689960016827
:10071000CA600268C16A21B1136843F00E03136016
:1007200008E0116821F00401116001680A6842F0D4
:100730000A020A600068016841F00101016002E0FC
:1007400080F8204002242046F0BC704780F8211039
:1007500080F820200020704730B4C16B0A6801681F
:100760000B68046C0425A5402A4233D05D0731D5BF
:100770000A68930603D40A6822F004020A6001683A
:10078000444A914208BF04211DD0434A914208BF08
:10079000402118D0414A914208BF4FF4806112D0E5
:1007A0003F4A914208BF4FF480410CD03D4A9142EC
:1007B00008BF4FF4802106D03B4A91420CBF4FF452
:1007C00080014FF08061394A1160C16A002959D017
:1007D00030BC08470225A5402A4238D09D0736D5AF
:1007E0000A68930606D40A6822F00A020A60012108
:1007F00080F821100168274A914208BF02211DD0CC
:10080000254A914208BF202118D0244A914208BFAE
:100810004FF4007112D0224A914208BF4FF40051A8
:100820000CD0204A914208BF4FF4003106D01E4A36
:1008300091420CBF4FF400114FF000711B4A116040
:10084000002180F82010816AE1B130BC08470825FA
:1008500005FA04F4224215D01A0713D50B6823F0C9
:100860000E030B600122016CC36B8A405A600121A8
:10087000816380F82110002180F82010016B09B1FC
:1008800030BC084730BC704700000000F8FFFDBFD7
:1008900000000240080002401C00024030000240FC
:1008A00044000240580002406C0002400400024034
:1008B00030B40346002093F82040012C08BF0220EA
:1008C00018D093F821500124012D83F820400DD138
:1008D00003290BD8DFE801F0020406089A6206E05B
:1008E000DA6204E01A6302E05A6300E001200021AA
:1008F00083F8201030BC70477047704770477047CE
:10090000704730B5016884684218416802EB5103B2
:10091000C90703D54C4401E0491C08D19A4218BFCD
:1009200012F9011B01D10C3030BD12F8015B002916
:1009300004F8015BF0D4491EF7D5EFE72DE9FC413F
:10094000040000F087812078DFF87864C10713D5B0
:10095000706800F00C00042807D0706800F00C00EC
:10096000082841D17068C1033ED53068810303D5A2
:100970006068002800F06E812178880719D57168B9
:1009800011F00C0F07D0706800F00C00082863D13C
:100990007068C10360D43068810703D520690128DD
:1009A00040F058813168606921F0F80141EAC001E6
:1009B00031602178080740F18580A069DFF81414C0
:1009C000002800F0A6800122C1F88024FFF744FE31
:1009D0000546706A810766D4FFF73EFE401B022879
:1009E000F7D90320BDE8F6816068B0F5803F04D1F7
:1009F000306840F48030306014E008B930680AE0B4
:100A0000B0F5A02F306806D140F480203060316806
:100A100041F4803105E020F480303060316821F409
:100A200080213160606858B1FFF716FE05463068D6
:100A30008103A1D4FFF710FE401B6528F7D3D0E750
:100A4000FFF70AFE05463068810395D5FFF704FEDF
:100A5000401B6528F7D3C4E72069DFF87813A8B1F5
:100A600001220A60FFF7F8FD05463068810705D4CA
:100A7000FFF7F2FD401B0228F7D9B2E73068616941
:100A800020F0F80040EAC100306092E70860FFF70C
:100A9000E3FD0546316888078BD5FFF7DDFD401B78
:100AA0000228F7D99DE7DFF820030168C9084FF451
:100AB0007A72B1FBF2F2009200BF0098411E00284A
:100AC0000091F9D1207841076FD5F0690025C10068
:100AD00009D4F06940F08050F0610125F06900F020
:100AE000805000900098DFF8F0723868C1051ED47D
:100AF000386840F480703860FFF7AEFD8046386893
:100B0000C10514D4FFF7A8FDA0EB08006528F6D3B3
:100B100067E7C1F88004FFF79FFD0546706A81070B
:100B2000D0D5FFF799FD401B0228F7D959E7E068B7
:100B3000012803D1306A40F0010012E008B9306AA0
:100B400009E00528306A06D140F004003062306ABE
:100B500040F0010005E0400840003062306A20F0BB
:100B60000400306241F28937E06860B1FFF774FD3C
:100B70008046306A810713D4FFF76EFDA0EB0800B2
:100B8000B842F6D32DE7FFF767FD8046306A81074C
:100B900006D5FFF761FDA0EB0800B842F6D320E7C9
:100BA0001DB1F06920F08050F061E069002854D058
:100BB000716801F00C0108293FD00228DFF81452B7
:100BC0002DD100202866FFF747FD074630688101D8
:100BD00005D5FFF741FDC01B0228F7D901E7206AC0
:100BE000B0F5803F05D17168A06821F40031014360
:100BF00071607268206A616A22F4741202430A43C7
:100C0000726001202866FFF727FD044630688101E5
:100C100023D4FFF721FD001B0228F7D9E1E60020CD
:100C20002866FFF719FD04463068810115D5FFF7E6
:100C300013FD001B0228F7D9D3E601280AD07068FB
:100C4000226A00F48031914202BF00F47010616AA0
:100C5000884202D00120BDE8F6810020BDE8F6817F
:100C60002DE9F843040088465FD05C4E306800F000
:100C70000700404509D23168C90848EAC10131601E
:100C8000306800F0070040454FD120684D4D810786
:100C900012D5400703D5696841F4E06169602078A6
:100CA000010703D5686840F4605068606968A0680F
:100CB00021F0F001014369602178C80726D56068FA
:100CC000012802D129688A0303E00228296802D199
:100CD0008A0102D429E08A0727D56968890840EA91
:100CE0008100686041F28939FFF7B6FC0746686801
:100CF000616800F00C00B0EB810F07D0FFF7ACFC8F
:100D0000C01B4845F3D30320BDE8F283306800F0F0
:100D1000070080450CD23168C90848EAC10131603A
:100D2000306800F00700404502D00120BDE8F283A2
:100D30002078410705D56A68E06822F4E062024342
:100D40006A602178080706D56968206921F4605136
:100D500041EAC001696000F00FF86A6820491A4B47
:100D6000C2F30312895CC84018601948006800F09B
:100D700049F80020BDE8F2831A490A6802F00C0025
:100D8000082812D11AA3C2F38340D203185C09D5F4
:100D90000A680E491AA34843C2F340415A5CB0FBAB
:100DA000F2F07047104948437047084870470648BA
:100DB0000C4A006813680D49C3F3C222895CC8401D
:100DC00070470000001002403000002000127A003E
:100DD0002C00002000004242007000400020024031
:100DE000702300080410024000093D009023000811
:100DF00002030405060708090A0B0C0D0E0F10105C
:100E00000102000038B50D4D0D4B2A7804464FF411
:100E10007A711868B1FBF2F2B0FBF2F000F057F80B
:100E200050B9102C08D2002221464FF0FF3000F0BC
:100E300016F8AC60002032BD012032BD2400002035
:100E400030000020304B19684FF6FF0200021140BD
:100E500000F4E06008432D4908431860704730B43F
:100E6000294B1C68C4F30223C3F10705052D28BFD5
:100E70000F2405D20125C3F1070405FA04F4641E0A
:100E80001D1D072D34BF0023DB1E21409940012486
:100E900004FA03F35B1E1A4011430901020003D454
:100EA0001B48815430BC70471A4B02F00F021A44A1
:100EB00002F8041C30BC7047010007D4012200F086
:100EC0001F01154B8A40400943F820207047401EFF
:100ED000B0F1807F01D30120704710494860F020B5
:100EE00081F8130D00228A600720086000207047F7
:100EF000010007D4012200F01F01094B8A4040097C
:100F000043F82020704700000CED00E00000FA05D7
:100F100000E400E018ED00E000E100E010E000E097
:100F200080E200E02DE9F04190B0DFF85484D8F879
:100F3000FC0F40F00400C8F8FC0FD8F8FC0F00F0DC
:100F4000040000900098012000900190032003907D
:100F5000002002906946DFF82C0400F027FAD8F848
:100F6000F80F40F00100C8F8F80FD8F8F80F00F0BB
:100F7000010000900098DFF81044C4F800801020B1
:100F800060600020A060E060A0614FF48076266180
:100F90004FF4806767614FF40055E5612046FFF725
:100FA00061FB002840F08C8008F13C006064102058
:100FB000A0640020E064802020650020E065666574
:100FC000A765256604F14400FFF74CFB002877D1A4
:100FD00008F16400C4F888001020C4F88C000020D8
:100FE000C4F89000C4F89400C4F8A000C4F8986055
:100FF000C4F89C70C4F8A45004F18800FFF732FBD9
:1010000000285DD10FF22122002104F18800FFF7B2
:101010004FFC0FF29122022104F18800FFF748FCF7
:10102000012200211120FFF71AFF1120FFF744FFD2
:10103000D648016841F001010160006800F001003C
:10104000009000984FF08040C4F89C031D20C4F825
:10105000A803CF480068CF49B0FBF1F0401E80B232
:10106000C4F8A0030020C4F8AC03C4F8A40304F53A
:10107000677000F071FA18BB08900A900820099078
:10108000002208A904F5677000F0C4FAC0B9019005
:10109000039015200290042201A904F5677000F066
:1010A000B9FA68B9022200211C20FFF7D8FE1C20E3
:1010B000FFF702FF042084F8E40310B0BDE8F081DC
:1010C000012084F8E40310B0BDE8F08170B5AE4CA7
:1010D00094F8E4030428FBD1022084F8E4034FF0E1
:1010E00080411D20C8620122206C02FA00F0E36BEF
:1010F000586023684FF4B4755D606068102803D1B0
:10110000A5489860A7A002E0A6A09860A248D86071
:10111000D4F8840002FA00F0D4F880607060666C45
:101120007560A06C102804D19B48B06004F1CC001D
:1011300003E004F1CC00B0609748F060D4F8C80038
:101140008240D4F8C4004260D4F888004560D4F8E6
:101150008C20102A04D1904A826000BF92A202E043
:1011600091A282608C4AC2608C4AF02515604FF4CF
:10117000702515604FF070651560026842F00E0230
:1011800002601A6842F001021A60326842F00102FD
:101190003260026842F00102026000200861D4F867
:1011A0009C03C16841F48071C160C16841F4007161
:1011B000C160C16841F48061C160012200214FF02B
:1011C000804000F01DFB012204214FF0804000F020
:1011D00017FBD4F89C031D214162016841F0010115
:1011E000016070BD6E48FFF7B7BA00B581B01C2032
:1011F000FFF77EFE6448D0F89C130A6A41F211138F
:101200001A4202BF0A6A40F244431A4203D10A68F2
:10121000520852000A60CA6852085200CA6004218B
:1012200080F8E41301B000BD10B51120FFF760FE97
:10123000554C20680168490849000160606C0168EC
:10124000490849000160D4F888000168490849004C
:101250000160D4F89C03C16821F48071C160C16849
:1012600021F40071C160C16821F48061C160002275
:1012700000214FF0804000F0C3FA002204214FF01B
:10128000804000F0BDFA4FF0804040F2DC51C16276
:1012900000214162D4F89C03C16841F00101C160A2
:1012A00010BD0000FEE70000DFF8DC0090F8E4135A
:1012B0000429FBD100F1CC020F214FF6FE7C042063
:1012C00013880CEA03031380138A0CEA03031382C6
:1012D000138C0CEA0303138453880CEA0303538032
:1012E000538A0CEA03035382538C0CEA030353849E
:1012F000121D401EE4D12032491EE0D17047002863
:1013000000D07047F0B40F291F4890F8E44335D25D
:10131000042CFDD1002401EB4105E90000EB410064
:1013200000F1CC0104980D884FF6FE7635400D8013
:101330000E8A4FF6FE773E400E820F8C4FF6FE7CF3
:101340000CEA07070F8403FA04FC4FEAEC1C0CF0CC
:10135000010C4CEA05050D8002FA04F5ED1105F0CB
:1013600001052E430E8200FA04F5ED1105F001058A
:101370002F430F84641C891C082CD4DBF0BC7047FD
:101380001C00024000080140340000201C100240F4
:101390003000002000366E010C08014004000240BD
:1013A000BC000020FFFF0000000000002DE9F84F06
:1013B0004FF0000E00246FF01F085A4A5A4BDFF816
:1013C0006C914FF00F0A83460CE0906048688002F1
:1013D000D06854BF20EA07070743D7600EF1010E1B
:1013E00008F104080F6837FA0EF000F09880012029
:1013F00000FA0EF63740B742F0D1486838B30128FA
:101400001AD002281DD003282ED0112816D0122859
:101410001AD0474DA8421CBF464DA84217D0464D92
:10142000A8421CBF454DA84211D0454DA8421CBF43
:10143000444DA8420BD018E0CC6816E0CC68241DBF
:1014400013E0CC68083410E0CC680C340DE08868F8
:1014500008B9042409E0012819BF0824CBF8146056
:101460000824CBF8106000E00024B7F5807F39BF76
:1014700058464FEA8E0C0BF10400C4460AFA0CF6EB
:101480000568B54304FA0CF6354305604868C000AA
:10149000A4D5D9F8000040F00100C9F80000D9F83F
:1014A000005005F0010500954FEA8E0500984FEABF
:1014B0009E0053F8206005F00C0C0AFA0CF526EAA1
:1014C0000505214EB34508BF00260ED01F4EB3457B
:1014D00008BF012609D01E4EB34508BF022604D01E
:1014E0001C4EB3450CBF0326042606FA0CF6354302
:1014F00043F820504868C00310684CBF3843B843D5
:1015000010604868800350684CBF3843B84350604F
:101510004868C00290684CBF3843B84355E7BDE8FF
:10152000F18F000000040140080001401810024043
:101530000000111000001210000021100000221005
:10154000000031100000321000080140000C014082
:10155000001001400014014010B5040001D1012029
:1015600010BD94F83D0028B9002184F83C102046B5
:1015700000F056F924E090F83D10012901D0012037
:101580007047022180F83D10DFF87C20016891420D
:1015900018BFB1F1804F07D0DFF8702091421CBF17
:1015A000DFF86C30994205D1896801F007010629FE
:1015B00004D001680A6842F001020A600020704706
:1015C000022084F83D00211D206800F047F801202A
:1015D00084F8460084F83E0084F83F0084F8400018
:1015E00084F8410084F8420084F8430084F8440001
:1015F00084F8450084F83D00002010BD84F83D00CB
:1016000084F83C0010BD0000002C014000040040A4
:101610000008004010B5044694F83C00012801D1B0
:10162000022010BD012084F83C004AB1042A0BD0EE
:10163000082A0DD00C2A04BF206800F0B8F80AE090
:10164000206800F03DF806E0206800F05FF802E056
:10165000206800F083F80020FFF7D2BF30B4644C5C
:101660000368A04218BFB0F1804F05D0614A904294
:101670001CBF614DA8420AD14A6823F0700313438E
:10168000A0421EBFB0F1804F5A4A904202D05A4D3C
:10169000A84203D1CA6823F4407313434A6923F074
:1016A000800313430360A0428B68C3620A688262AE
:1016B00002D10969514A11600123436130BC70476E
:1016C00070B4026A520852000262066A4468856970
:1016D0000B688A6825F073051D4326F00206164341
:1016E000434B98420BD1CA684B6926F0080624F494
:1016F000407416438A691C4326F004061443446070
:10170000856149684163066270BC704770B4026AC3
:10171000374E22F010020262B042056A43688469C3
:101720000A6824F4E64444EA02248A6825F0200585
:1017300045EA02150DD1CA684E6925F0800545EAD3
:1017400002158A6923F44063164325F0400543EAF5
:101750008603436084614968816325E070B4026A4E
:1017600022F480720262056A4368C4690A688E685E
:1017700024F0730414431E4A25F40075904245EA90
:1017800006250DD1CA684E6925F4006545EA022593
:101790008A6923F44053164325F4806543EA06130F
:1017A0004360C4614968C163056270BC704770B42E
:1017B000026A0F4E22F480520262B042046A42680A
:1017C000C3690D6823F4E64343EA05238D6824F4D6
:1017D000005444EA053404D14D6922F4804242EABF
:1017E00085124260C36149680164046270BC70473D
:1017F000002C01400004004000080040302C014053
:1018000001F01F01036A4FF0010C0CFA01FC23EAFE
:101810000C03036202FA01F1036A19430162704783
:101820007047000038B58CB01022002108A800F0E5
:10183000F5F80C22002101A800F0F0F81022002198
:1018400004A800F0EBF86C4D6C4C686840F4007034
:1018500068600122686800F400700090032300981B
:10186000696841F008016960686800F0080000904C
:1018700000990892099308A96148FFF797FD61480C
:1018800060640021A164E16484F8501084F8581069
:1018900001206065E0654FF40021216604F14400F9
:1018A000FEF724FC002840F08080082001210190F0
:1018B00002910022039201A904F14400FEF7B0FD59
:1018C000002872D102214FF400420491069204A82C
:1018D00000F0AEF8286840F0010028600022296876
:1018E00001F0010100910098474921604FF4807098
:1018F0008021E16020614FF4806161612020A0615E
:101900004FF400516260A260E1612046FEF7AAFE3A
:1019100000284AD104F14400606264660022032179
:101920000B20FFF79CFA0B20FFF7C6FA00220221DA
:101930001220FFF794FA1220FFF7BEFAA868334985
:1019400040F00200A8600922A86800F002000090A0
:1019500000982F486167C4F8802001682D4AB1FBC8
:10196000F2F2531E00209BB2C4F88400E067C4F872
:101970008800C4F88C00A36704F17400FFF7ECFD45
:1019800098B9202101910022029201A904F174006A
:1019900000F02AF948B904F1440000F05DF920B9DB
:1019A00004F17400FFF7E7FD10B101200DB030BD68
:1019B000082204F1BC0104F14400FEF72DFC401E96
:1019C0008041C043C00F0DB030BD134A082132F929
:1019D000023BA3F500630FFA83FCBCF1000F48BF84
:1019E000CCF1000C491E6044F1D1C008B0F5006F85
:1019F00088BF4FF400607047141002401C040020A0
:101A0000000C014000240140080002400004004096
:101A10003000002080380100D804002010B50446B2
:101A200010460A460146204600F07CF9204610BDCB
:101A30002DE9FC410646614D3078C10751D5A869B2
:101A40000024C10009D4A86940F08050A861012495
:101A5000A86900F0805000900098594F3868C1057F
:101A600012D4386840F480703860FEF7F5FD804687
:101A70003868C10508D4FEF7EFFDA0EB0800652823
:101A8000F6D30320BDE8F681E86910F440701EBF6C
:101A9000716801F44071884218D04A49E86901220E
:101AA0000A60002320F440700B60E861C0070DD588
:101AB000FEF7D2FD074641F28938E869810705D46F
:101AC000FEF7CAFDC01B4045F7D3DAE7E969706845
:101AD00021F440710143E9611CB1A86920F08050F4
:101AE000A8613078810705D52A68B06822F44042A1
:101AF00002432A603178C80605D52968F06821F4C8
:101B00008001014329600020BDE8F68110B5002165
:101B1000012826D0022845D010284DD12A4B5868DC
:101B20001A68D40148D500BF2AA1C0F38342C0037C
:101B3000895C0CD5586800BF2AA4244AC0F34040F1
:101B4000205CB2FBF0F408462146414301E0204A04
:101B50005143586842022FD449000320B1FBF0F1F1
:101B60002AE01948026A40F202331340B3F5817F3C
:101B700008BF4FF400411FD002F44073B3F5007F5B
:101B800005D1436A9C0748BF49F6404114D402F48A
:101B90004072B2F5407F0FD1006882030CD54FF23E
:101BA000244109E0FFF703F907494A68C2F381318C
:101BB000491C4900B0FBF1F1084610BD0410024079
:101BC00000700040400442420010024000127A00BF
:101BD00000093D0002030405060708090A0B0C0D65
:101BE0000E0F10100102000030B490F83C20012AC2
:101BF00008BF022026D0012280F83C20022380F872
:101C00003D3004686568A3680A6825F070051543CF
:101C1000656002680D4CA24218BFB2F1804F05D03A
:101C20000B4CA2421CBF0B4DAA4204D1496823F0C1
:101C300080030B439360012280F83D20002180F84F
:101C40003C10002030BC704700000000002C014018
:101C500000040040000800407CB5044600200090CD
:101C600094F82410012901D1022076BD012084F8C6
:101C700024002046FEF79AFC05004BD1A06A20F410
:101C8000885040F00200A0620220FFF73FFFDFF81B
:101C900090100A68B2FBF0F0400001E00098401E8E
:101CA000009000980028F9D12046FEF739FC206802
:101CB000816841F008018160FEF7CEFC064620688D
:101CC00081680A0705D5FEF7C7FC801B0B28F6D3F1
:101CD0000FE0816841F004018160FEF7BDFC06461B
:101CE0002068816848070FD5FEF7B6FC801B0B28DB
:101CF000F6D3A06A20F0020040F01000A06200209D
:101D000084F82400012076BDA06A20F0020040F093
:101D10000100A062002084F82400284676BD00005F
:101D20003000002062F30F2262F31F42401810F0CF
:101D3000030308D0C91A1FD3DB0748BF00F8012DE1
:101D400028BF20F8022D130030B414461546103970
:101D500028BF20E93C00FAD8490728BF20E90C0039
:101D600048BF40F8042D890028BF20F8022D48BF45
:101D700000F8012D30BC7047C91818BF00F8012DBC
:101D8000CB0728BF00F8012D704700005348002101
:101D90000172C171817100225149A0F80B20012309
:101DA000A0F80920027101604371002070472DE9FD
:101DB000F84F4A4F3C7C7E7C641C761C0F28814681
:101DC00070D2787900281DBF0E2000217971484615
:101DD000B871397ABA79914202D23A72192003E085
:101DE000B7F80B0018B1401EA7F80B000BE051B17B
:101DF000E0B20F2390FBF3F3C3EB0313C01A02D13D
:101E0000481E3872002497F80880F979414502D2BB
:101E1000FA717D2003E0B7F8090018B1401EA7F859
:101E200009000CE059B1F0B2282290FBF2F202EB6B
:101E30008203B0EBC30002D1481EF8710026FFF701
:101E400033FA0025B8F1000F22D0D7F800A0D3460E
:101E50009AF82D109BF801309BF802009BF80020A7
:101E600001290AD109FB00F0C0B209FB03F309FB09
:101E700002F20090DBB2D2B200E00090A9B20020E2
:101E8000FFF73DFA6D1CE8B240450BF1030BDFD3C1
:101E9000002200920023F979FF220020FFF72FFA99
:101EA000FFF714F97E743C74BDE8F18F0B4801799B
:101EB000491C0171012301F0030100EB81014A6912
:101EC00002604371704780B500F00EF8054900F0DC
:101ED00019F800F083F8C0B202BD00000000002035
:101EE000002200080000F03B50B1B0FA80F18840B9
:101EF000C1F19D01C905020672F1004241EB1020BB
:101F000070470000FF2212EAD05C1DBF12EAD153D5
:101F1000944593422BE09C44D30780EA010243EAB4
:101F2000002043EA01211A40A1FB0030C04238BF23
:101F300000187CF17F010BDBFE294ADA5B0842EADC
:101F4000C15153EA006373F1004C51EB102070470C
:101F5000D1F1080CDCF120012FDB5B0810FA01F154
:101F60000B4320FA0CF073F1004150417047944547
:101F70001CBF02EAD153934280EA010202F0004200
:101F80001DD0400019D0490017D05BB9634514D06B
:101F90000902B1FA81F39940BCEB030CC00140F097
:101FA0000040C1E70002B0FA80FC10FA0CF0B3EB7D
:101FB0000C0CC90141F00041B6E710007047400029
:101FC0000AD0490008D010F1807F94BF11F1807FC2
:101FD00002E042F0FF407047D0437047C0F3C75162
:101FE000D1F19E0108DD020242F00042CA4002EB3C
:101FF000E07282EAE07070477FEAE07080F00040B3
:10200000704780B500F048F800F012F8FEF78AFF3C
:10201000FFF7BCFE00F052F8FFF704FCFFF7D5FC19
:10202000FFF751FFFFF7C3FE012000F071F8F5E75D
:1020300000B58FB02822002105A8FFF7EFFC14227D
:1020400000216846FFF7EAFC4FF480310022069138
:1020500007920D9101200590099002224FF4E011A2
:102060000C920E9105A8FEF769FC08B172B6FEE766
:10207000022101910F204FF4806100900022039112
:102080000292049202216846FEF7EAFD08B172B698
:10209000FEE70FB000BD000080B50748016841F0C1
:1020A000100101600320FEF7CDFE0020FEF7AAFE1E
:1020B00000F042F8002002BD0020024080B5104828
:1020C000104A84B0016841F0080101604FF40061DA
:1020D000006800F00800009000980B480091019201
:1020E000002102916946FFF761F9002200212820B2
:1020F000FEF7B5FE2820FEF7DFFE05B000BD0000AC
:102100001810024000002110000C0140FFF7CEBE65
:1021100038B50446FEF7A0FA14F1010F054602D0C7
:10212000044908780419FEF797FA401BA042FAD335
:1021300031BD00BF240000200A4881B0016841F091
:1021400001010160026802F00102009200994268F8
:1021500042F080524260406800F080500090009849
:1021600001B0704718100240FEE7FEE7FEE7FEE709
:10217000FEE770477047704700F01EB80C480168D2
:102180000A0502D54FF4006107E07047084801686E
:102190008A0701D5022100E070470160FFF7B6BF52
:1021A0000448FEF7C5B80348006AFEF7D5BA000038
:1021B000140401406004002002494A68087882182B
:1021C0004A6070472400002030B4002512E050F827
:1021D000042BD30744BF4A44521E091F042942F866
:1021E000045BFAD213468C0744BF15809B1CC907B9
:1021F00048BF1D7050F8041B0029E8D130BC70475F
:1022000000FF0000FF0000FF0000FF0000FF0000D3
:10221000FF0000FF0000FF0000FF0000FF00FF8044
:1022200000FF8000FF8000FF8000FF000000000032
:102230000000FF1100EE2200DD3300CC4400BB554E
:1022400000AA660099770088990066AA0055BB002D
:1022500044CC0033DD0022EE0011FF00000000003E
:1022600000FF0000EE1100DD2200CC3300BB440073
:10227000AA5500996600887700778800669900550E
:10228000AA0044BB0033CC0022DD0011EE000000A8
:10229000FFFF00EEFF11DDFF22CCFF33BBFF44AA9E
:1022A000FF5599FF6688FF7777FF8866FF9955FF8E
:1022B000AA44FFBB33FFCC22FFDD11FFEE0000007C
:1022C00010B5074979441831064C7C44163404E0B3
:1022D0000A68081D114488470146A142F8D110BD83
:1022E0000800000024000000E1FEFFFFCC00000019
:1022F0001C040020000000000BE6FFFF300100007E
:102300005C0000000000002000F00DF8002801D063
:10231000FFF7D6FFAFF300800020AFF30080FFF798
:1023200070FE00F002F80120704700F001B80000D4
:102330000746384600F002F8FBE7000080B5AFF32F
:102340000080024A11001820ABBEFBE72600020005
:102350000548014603B4684680F30988AFF300805E
:10236000AFF30080FFF7D0FFA5EDF5FE704700004A
:102370000000000000000000010203040607080935
:1023800001488047014800476D2300085123000899
:102390000000000001020304FFF7FEBFFFF7FEBFCD
:1023A000FFF7FEBFFFF7FEBFFFF7FEBFFFF7FEBF61
:1023B000FFF7FEBFFFF7FEBFFFF7FEBFFFF7FEBF51
:1023C000FFF7FEBFFFF7FEBFFFF7FEBFFFF7FEBF41
:1023D000FFF7FEBFFFF7FEBFFFF7FEBFFFF7FEBF31
:1023E000FFF7FEBFFFF7FEBFFFF7FEBFFFF7FEBF21
:1023F000FFF7FEBFFFF7FEBFFFF7FEBFFFF7FEBF11
:10240000FFF7FEBFFFF7FEBFFFF7FEBFFFF7FEBF00
:10241000FFF7FEBFFFF7FEBFFFF7FEBFFFF7FEBFF0
:10242000FFF7FEBFFFF7FEBFFFF7FEBFEB000F2277
:10243000000830220008602200089022000801F9FC
:10244000000010FC000124F4810081008100810063
:0A2450008100810081009400000566
:04000005080023517B
:00000001FF
