:020000040800F2
:1000000048080020612500087123000873230008B8
:1000100075230008772300087923000800000000FA
:100020000000000000000000000000007B2300082A
:100030007D230008000000007F23000881230008C2
:100040007D250008812500088525000889250008F0
:100050008D2500089125000895250008A12300089A
:10006000992500089D250008A1250008A525000860
:10007000A9250008AD250008B1250008B525000810
:10008000B92500087D140008BD250008C125000819
:10009000C5250008C9250008CD250008D125000880
:1000A000D5250008D9250008DD250008E125000830
:1000B00083140008E5250008E9250008ED2500085F
:1000C000F1250008F5250008F9250008FD250008A0
:1000D0000126000805260008092600080D2600084C
:1000E000892300081126000815260008F8B5040029
:1000F000002C01D1012039E22078C00740F1848032
:10010000DFF89406006810F00C0004280BD0DFF82C
:100110008806006810F00C0008280ED1DFF8780679
:100120000068C00309D5DFF86C06006880036BD552
:100130006068002868D1012018E26068B0F5803F4F
:1001400008D1DFF85006006850F48030DFF844161C
:10015000086038E06068002810D1DFF838060068D1
:1001600030F48030DFF82C160860DFF828060068CD
:1001700030F48020DFF81C16086024E06068B0F5D9
:10018000A02F10D1DFF80C06006850F48020DFF8B3
:1001900004160860DFF8FC05006850F48030DFF8D2
:1001A000F41508600FE0DFF8EC05006830F48030EB
:1001B000DFF8E0150860DFF8DC05006830F4802027
:1001C000DFF8D0150860606800280ED000F006FB4C
:1001D0000500DFF8C0050068800315D400F0FEFAC2
:1001E000401B6528F5D30320C0E100F0F7FA0500B5
:1001F000DFF8A0050068800306D500F0EFFA401B89
:100200006528F5D30320B1E1207880075CD5DFF8BD
:100210008805006810F00C0F0BD0DFF87C05006833
:1002200010F00C0008281AD1DFF86C050068C00334
:1002300015D4DFF860050068800704D5206901281F
:1002400001D0012092E1DFF84C05006830F0F800A1
:10025000616950EAC100DFF83C15086034E02069AC
:1002600000281ED00120DFF84415086000F0B6FA1F
:100270000500DFF820050068800706D400F0AEFA1C
:10028000401B0328F5D3032070E1DFF80805006860
:1002900030F0F800616950EAC100DFF8F814086036
:1002A00012E00020DFF80415086000F097FA05005E
:1002B000DFF8E0040068800706D500F08FFA401BE5
:1002C0000328F5D3032051E1207800072CD5A0693D
:1002D000002816D00120DFF8D814086000F07EFA5C
:1002E0000500DFF8C4040068800706D400F076FA41
:1002F000401B0328F5D3032038E1012000F036FA33
:1003000012E00020DFF8A814086000F067FA05008A
:10031000DFF894040068800706D500F05FFA401B00
:100320000328F5D3032021E12078400740F1A8807D
:100330000027DFF880040068C00010D4DFF87404E0
:10034000006850F08050DFF86C140860DFF8640437
:10035000006810F080500090009801200700DFF83E
:1003600058040068C00516D4DFF84C04006850F447
:100370008070DFF84414086000F030FA0500DFF800
:1003800038040068C00506D400F028FA401B652830
:10039000F5D30320EAE0E068012808D1DFF81C0467
:1003A000006850F00100DFF81414086037E0E068DE
:1003B000002810D1DFF80404006840084000DFF88E
:1003C000FC130860DFF8F403006830F00400DFF885
:1003D000EC13086023E0E068052810D1DFF8DC03A7
:1003E000006850F00400DFF8D4130860DFF8CC0395
:1003F000006850F00100DFF8C41308600FE0DFF878
:10040000BC03006840084000DFF8B0130860DFF864
:10041000AC03006830F00400DFF8A0130860E06867
:10042000002810D000F0DAF90500DFF8900300682A
:10043000800719D400F0D2F9401B41F2893188427B
:10044000F3D3032092E000F0C9F90500DFF86C0354
:100450000068800708D500F0C1F9401B41F28931DE
:100460008842F3D3032081E03800C0B2012807D1CD
:10047000DFF84003006830F08050DFF83813086080
:10048000E069002871D0DFF81003006810F00C005C
:10049000082855D0E06902283FD10020DFF820135A
:1004A000086000F09BF90700DFF8E80200688001AF
:1004B00006D500F093F9C01B0328F5D3032055E0BF
:1004C000206AB0F5803F09D1DFF8CC02016831F431
:1004D0000031A0680143DFF8C0020160DFF8B80214
:1004E000016831F47411206A0143606A0143DFF846
:1004F000A80201600120DFF8C812086000F06EF960
:100500000500DFF89002006880012ED400F066F943
:10051000401B0328F5D3032028E00020DFF8A012B9
:10052000086000F05BF90500DFF8680200688001F0
:100530001BD500F053F9401B0328F5D3032015E029
:10054000E069012801D1012010E0DFF84C020068C9
:10055000060016F48030216A884204D116F4701027
:10056000616A884201D0012000E00020F2BD70B530
:1005700004000D00002C01D10120AFE0DFF844029F
:10058000006810F00700A84211D2DFF838020068B6
:10059000C008C0002843DFF82C120860DFF82402EE
:1005A000006810F00700A84201D0012096E02078F2
:1005B00080071FD52078400707D5DFF8DC010068E9
:1005C00050F4E060DFF8D01108602078000707D50C
:1005D000DFF8C401006850F46050DFF8BC11086017
:1005E000DFF8B401016831F0F001A0680143DFF8E1
:1005F000A80101602078C00734D56068012806D1C1
:10060000DFF890010068800310D4012066E0606884
:10061000022805D15F480068800107D401205DE011
:100620005C480068800701D4012057E05A480168FF
:1006300089088900606801435748016000F0CEF8DE
:1006400006005548006810F00C006168B0EB810F9F
:1006500008D000F0C3F8801B41F289318842F0D302
:1006600003203BE05748006810F0070085420ED297
:1006700054480068C008C0002843524908605148E7
:10068000006810F00700A84201D0012026E0207881
:10069000400707D54048016831F4E061E068014354
:1006A0003D4801602078000708D53B48006830F4D9
:1006B0006050216950EAC1003749086000F00FF826
:1006C0004149354A1268C2F30312895CC840344973
:1006D00008603448006800F087F8002070BD78B5E5
:1006E00085B001A83949102200F0A4F838480088E4
:1006F000ADF8000000200021002200230024264D38
:100700002D6815F00C06042E02D0082E02D01CE035
:1007100022481BE001A8C5F38346805D0300E8037F
:100720000DD568461C4E3668C6F34046805D010014
:100730001A4800FB03F0B0FBF1F0020003E025488B
:1007400000FB03F00200100000E0144806B070BD8A
:1007500013480068704780B5FFF7FAFF1E490E4A3C
:100760001268C2F3C222895CC84002BD81B00C4944
:100770000968C9084FF47A72B1FBF2F101FB00F18C
:10078000009100BF00994A1E00920029F9D101B0E2
:1007900070470000001002400410024000127A006E
:1007A00014000020100000202410024000004242EB
:1007B000800442421C1002400070004020100240A1
:1007C0006000424200200240502500083025000809
:1007D0009610000800093D007025000801480068D7
:1007E000704700BF3C04002010B504004FF47A703D
:1007F0000D490978B0FBF1F00C490968B1FBF0F044
:1008000000F01AF9002801D001200CE0102C09D2C8
:10081000002221005FF0FF3000F0F2F8044804608D
:10082000002000E0012010BD400400201400002042
:1008300010000020103A07D330B4B1E83810103A55
:10084000A0E83810F9D230BC530724BFB1E8081033
:10085000A0E8081044BF51F8043B40F8043BD2071D
:1008600024BF31F8022B20F8022B44BF0B78037011
:100870007047121F17D35B0009D151F8043B20F8D1
:10088000023B1B0C121F20F8023BF6D20BE051F882
:10089000043B00F8013B1B0A20F8023B1B0C121F13
:1008A00000F8013BF3D238BF121D521E24BF11F8CD
:1008B000013B00F8013BF8D8704730B50168846807
:1008C0004218416802EB5103C90703D54C4401E0CB
:1008D000491C08D19A4218BF12F9011B01D10C30F2
:1008E00030BD12F8015B002904F8015BF0D4491E09
:1008F000F7D5EFE710F0070356490A684FF6FF01F6
:100900000A4052EA032254490A4352490A60704796
:1009100050480068C0F302207047010049B2002926
:1009200009D4012210F01F018A404C4903005BB238
:100930005B0941F823207047010049B2002909D41E
:10094000012210F01F018A40454903005BB25B0998
:1009500041F82320704710B4020052B2002A05D497
:100960000A01404B040064B21A5508E00A013E4BEC
:10097000040064B214F00F04234403F8042C10BCE8
:10098000704770B4030013F00704D4F10700052882
:1009900001D3042001E0D4F10700251D072D01D269
:1009A000002500E0E51E012616FA00F0401E014079
:1009B000A940012010FA05F56D1E2A4011430800D8
:1009C00070BC704710B50400601EB0F1807F01D389
:1009D00001200EE0601E254908600F215FF0FF3006
:1009E000FFF7B9FF0020224908600720214908606D
:1009F000002010BD10B504002000FFF77BFF10BDE4
:100A00002DE9F04104000D0016000027FFF780FFDC
:100A10008046320029004046FFF7B3FF0100200066
:100A200040B2FFF798FFBDE8F08110B50400200048
:100A300040B2FFF772FF10BD10B504002000FFF7B1
:100A4000C1FF10BD10B50400200040B2FFF774FFD5
:100A500010BD00000CED00E00000FA0500E100E030
:100A600080E200E000E400E018ED00E014E000E0C7
:100A700018E000E010E000E02DE9F04104005FF034
:100A80000008002500260027002C01D1012093E05A
:100A9000A068002801D0207D0028A06A002807D186
:100AA0000020E062002084F82400200000F0F2FA28
:100AB000200000F0C9FAA16AC90676D40100C9B2C3
:100AC000002972D1A16A31F4885151F00201A1626A
:100AD00061680E43E1690E43217B56EA4106A16835
:100AE000B1F5807F02D0A168012902D14FF4807155
:100AF00000E000210D43217D012911D1217B002936
:100B000006D1A169491E55EA413555F4006507E053
:100B1000A16A51F02001A162E16A51F00101E16294
:100B20002168496831F4694129432268516021688C
:100B30008A68DFF8E0140A40324321688A60A168BD
:100B4000B1F5807F02D0A168012902D14FF48071F4
:100B500000E00021B1F5807F03D12169491E09051C
:100B60000F002168C96A31F4700139432268D162EB
:100B700021688A68DFF8A0140A40B24208D1002137
:100B8000E162A16A31F0020151F00101A16212E0BB
:100B9000A16A31F0020151F01001A162E16A51F045
:100BA0000101E1620121080005E0A16A51F0100194
:100BB000A16201210800C0B2BDE8F08138B504008F
:100BC000002594F82400012801D102208AE00120A8
:100BD00084F82400200000F0E5F90100C9B20029E2
:100BE0007CD1A26ADFF834140A4052F48072A26207
:100BF0002168DFF82C24914209D1DFF82814096814
:100C000011F4702F01D1012102E0002100E0012147
:100C100000290ED0A16A31F48011A16221684968CF
:100C2000490523D5A16A31F4005151F48051A162E4
:100C30001CE0A16A51F48011A1622168DFF8E82369
:100C4000914204D02168DFF8D823914205D1DFF822
:100C5000D413096811F4806100E00021002905D057
:100C6000A16A31F4005151F48051A162A16AC90412
:100C700004D5E16A31F00601E16201E00021E162A0
:100C8000002184F824107FF002012268116021689D
:100C9000896811F46021B1F5602F18D12168DFF85F
:100CA0008023914209D1DFF87C13096811F4702F79
:100CB00001D1012102E0002100E00121002906D03C
:100CC0002168896851F4A0012268916009E02168D7
:100CD000896851F480112268916002E0002184F853
:100CE0002410C0B232BD2DE9FC4105000C005FF0BC
:100CF0000008002000900027FFF770FD060028681C
:100D00008068C00508D5A86A50F02000A8620020BD
:100D100085F82400012097E028684068C0051BD4AE
:100D20002868C06A10F4700F16D128680068800720
:100D30006CD414F1010FF8D0002C04D0FFF74EFD55
:100D4000801B8442F1D2A86A50F00400A8620020FF
:100D500085F82400032077E0022000F09DF929683F
:100D60000969DFF8C822114215D12968C968DFF87E
:100D7000C02211420FD129680969DFF8B822114257
:100D800007D12968C968DFF8B022114201D11421C6
:100D90001CE029211AE029680969DFF8982211422C
:100DA00005D12968C968DFF8902211420BD0296863
:100DB0000969DFF88822114207D12968C968DFF87C
:100DC0007C22114201D1542100E0FC21DFF8702285
:100DD0001268B2FBF0F74F430098B84216D214F1F4
:100DE000010F0FD0002C04D0FFF7F8FC801B8442C9
:100DF00008D2A86A50F00400A862002085F82400F8
:100E0000032021E00098401C0090E5E77FF01200ED
:100E100029680860A86A50F40070A8622868806891
:100E200010F46020B0F5602F0DD1287B00280AD186
:100E3000A86A30F48070A862A86AC00403D4A86AC3
:100E400050F00100A8620020BDE8F6810068C06C87
:100E5000704778B4020000230020009092F824002C
:100E6000012801D102209BE0012082F8240048687B
:100E7000072812D21068446B1F254868461E0520BB
:100E80004643B540AC430D684868461E05204643BE
:100E9000B5402C431068446329E048680D2812D2FD
:100EA0001068046B1F254868C61F05204643B540DF
:100EB000AC430D684868C61F05204643B5402C4327
:100EC0001068046313E01068C46A1F254868B0F115
:100ED0000D0605204643B540AC430D684868B0F1A7
:100EE0000D0605204643B5402C431068C4620868CF
:100EF0000A2814D31068C46807250868B0F10A06E8
:100F000003204643B540AC438D680868B0F10A063B
:100F100003204643B5402C431068C4600FE01068BE
:100F2000046907250E6803204643B540AC438D682D
:100F30000E6803204643B5402C43106804610868DE
:100F4000102802D00868112825D11068364CA0421C
:100F50001BD11068806800021DD41068806850F4AE
:100F600000001468A0600868102814D13448006894
:100F7000344CB0FBF4F40A20444300940098002859
:100F800009D00098401E0090F8E7906A50F02000C9
:100F9000906201200300002082F824001800C0B2F3
:100FA00072BC704738B5040000250020009020680E
:100FB0008068C0072BD42068806850F00100216849
:100FC00088601F4800681F49B0FBF1F0009000984E
:100FD000002803D00098401E0090F8E7FFF7FEFBC2
:100FE000050020688068C00711D4FFF7F7FB401B9D
:100FF0000328F6D3A06A50F01000A062E06A50F017
:101000000100E062002084F82400012000E00020BC
:1010100032BD0000FDF7E1FFFE0E1FFFFEFDFFFFEA
:101020000028014004240140002401402449922466
:1010300024499200922449129224490049922400A2
:101040001400002040420F0038B50400002520683D
:101050008068C0071BD52068806840084000216870
:101060008860FFF7BBFB050020688068C0070ED5CD
:10107000FFF7B4FB401B0328F6D3A06A50F0100022
:10108000A062E06A50F00100E062012000E0002070
:1010900032BD0000704701022DE9F04385B0040025
:1010A00001A840491022FFF7C5FB3F480088ADF872
:1010B00000000025002600275FF000085FF000090F
:1010C0002000012832D0022858D0102862D134489C
:1010D0000068804635480068C00126D501A8C8F3DD
:1010E0008341405C07005FEAC8300FD568462C4951
:1010F0000968C1F34041405C05005FEAC83009D58A
:101100002B48B0FBF5F07843060003E0294800FBCC
:1011100007F0060022480068400201D5B14604E00D
:1011200070000321B0FBF1F0814633E01B480068FA
:10113000804640F2023010EA0800B0F5817F03D10A
:101140004FF40040814618E018F44070B0F5007F7D
:1011500007D119480068800703D549F64040814609
:101160000BE018F44070B0F5407F06D10F480068DE
:10117000800302D54FF2244081460BE0FFF7EBFAE3
:1011800007490968C1F38131491C4900B0FBF1F0FE
:101190008146FFE7484605B0BDE8F08320100240D5
:1011A00004100240402500084216000800100240CA
:1011B00000127A0000093D00241002402DE9F041A0
:1011C00090B0DFF85484D8F8FC0F40F00400C8F861
:1011D000FC0FD8F8FC0F00F00400009000980120EC
:1011E0000090019003200390002002906946DFF8F0
:1011F0002C0400F027FAD8F8F80F40F00100C8F8E6
:10120000F80FD8F8F80F00F0010000900098DFF810
:101210001044C4F80080102060600020A060E060EE
:10122000A0614FF4807626614FF4806767614FF4C8
:101230000055E561204600F039FB002840F08C8025
:1012400008F13C0060641020A0640020E06480206D
:1012500020650020E0656665A765256604F1440009
:1012600000F024FB002877D108F16400C4F888005E
:101270001020C4F88C000020C4F89000C4F894003A
:10128000C4F8A000C4F89860C4F89C70C4F8A450D6
:1012900004F1880000F00AFB00285DD10FF2212242
:1012A000002104F1880000F0FBFB0FF291220221E3
:1012B00004F1880000F0F4FB012200211120FFF767
:1012C0009FFB1120FFF7B1FBD648016841F00101F7
:1012D0000160006800F00100009000984FF080402D
:1012E000C4F89C031D20C4F8A803CF480068CF4968
:1012F000B0FBF1F0401E80B2C4F8A0030020C4F897
:10130000AC03C4F8A40304F5677000F0F7FB18BB46
:1013100008900A9008200990002208A904F5677037
:1013200000F023FCC0B90190039015200290042224
:1013300001A904F5677000F018FC68B902220021C9
:101340001C20FFF75DFB1C20FFF76FFB042084F8D7
:10135000E40310B0BDE8F081012084F8E40310B08C
:10136000BDE8F08170B5AE4C94F8E4030428FBD1DD
:10137000022084F8E4034FF080411D20C86201225E
:10138000206C02FA00F0E36B586023684FF4B475E8
:101390005D606068102803D1A5489860A7A002E0AE
:1013A000A6A09860A248D860D4F8840002FA00F0A1
:1013B000D4F880607060666C7560A06C102804D1F1
:1013C0009B48B06004F1CC0003E004F1CC00B060B5
:1013D0009748F060D4F8C8008240D4F8C400426056
:1013E000D4F888004560D4F88C20102A04D1904AA3
:1013F000826000BF92A202E091A282608C4AC26029
:101400008C4AF02515604FF4702515604FF070651B
:101410001560026842F00E0202601A6842F0010292
:101420001A60326842F001023260026842F0010242
:10143000026000200861D4F89C03C16841F4807107
:10144000C160C16841F40071C160C16841F480614C
:10145000C160012200214FF0804000F0A1FC012278
:1014600004214FF0804000F09BFCD4F89C031D2128
:101470004162016841F00101016070BD6E4800F0F9
:1014800048BA00B581B01C20FFF7DCFA6448D0F8F8
:101490009C130A6A41F211131A4202BF0A6A40F20F
:1014A00044431A4203D10A68520852000A60CA68CB
:1014B00052085200CA60042180F8E41301B000BD54
:1014C00010B51120FFF7BEFA554C20680168490895
:1014D00049000160606C0168490849000160D4F866
:1014E00088000168490849000160D4F89C03C1687C
:1014F00021F48071C160C16821F40071C160C168CC
:1015000021F48061C160002200214FF0804000F092
:1015100047FC002204214FF0804000F041FC4FF0D6
:10152000804040F2DC51C16200214162D4F89C034A
:10153000C16841F00101C16010BD0000FEE700007C
:10154000DFF8DC0090F8E4130429FBD100F1CC02B1
:101550000F214FF6FE7C042013880CEA030313804E
:10156000138A0CEA03031382138C0CEA030313841B
:1015700053880CEA03035380538A0CEA0303538213
:10158000538C0CEA03035384121D401EE4D1203215
:10159000491EE0D17047002800D07047F0B40F29F1
:1015A0001F4890F8E44335D2042CFDD1002401EB10
:1015B0004105E90000EB410000F1CC0104980D88E1
:1015C0004FF6FE7635400D800E8A4FF6FE773E4090
:1015D0000E820F8C4FF6FE7C0CEA07070F8403FA8D
:1015E00004FC4FEAEC1C0CF0010C4CEA05050D80E4
:1015F00002FA04F5ED1105F001052E430E8200FA02
:1016000004F5ED1105F001052F430F84641C891CBE
:10161000082CD4DBF0BC70471C00024000080140DD
:10162000180000201C1002401400002000366E013B
:101630000C08014004000240A0000020FFFF000051
:10164000000001022DE9F84302005FF0000E5FF098
:101650000008086830FA0EF0002800F0048101202C
:1016600010FA0EF003000868184004009C4240F095
:10167000F7804868002831D0012820D0022825D0E2
:1016800003283CD011281DD0122823D0DFF8DCC15C
:10169000604523D0DFF8D8C160451FD0DFF8D4C142
:1016A00060451BD0DFF8D0C1604517D0DFF8CCC152
:1016B000604513D0DFF8C8C160450FD022E0C8688C
:1016C00080461FE0C868001D80461BE0C8680830DF
:1016D000804617E0C8680C30804613E08868002810
:1016E00002D10420804609E08868012803D108203F
:1016F0008046136102E008208046536102E000202A
:101700008046FFE7B4F5807F01D2160000E0161D89
:10171000B4F5807F02D25FEA8E0702E0BEF10807CF
:10172000BF00D6F800C00F20B8403CEA000C18FA01
:1017300007F050EA0C0CC6F800C04868C00040F141
:101740008F805048006850F00100DFF838C1CCF8B5
:1017500000004C48006810F00100009000984A48D2
:10176000F4465FEA9C0C50F82CC05FF00F091EF0A5
:101770000300C0B2800019FA00F93CEA090C4348A2
:10178000824202D15FF0000913E04148824202D157
:101790005FF001090DE03F48824202D15FF002098B
:1017A00007E03D48824202D15FF0030901E05FF0AB
:1017B000040965461EF00300C0B2800019FA00F962
:1017C00059EA05053048F4465FEA9C0C40F82C5075
:1017D0004868C00307D5314800682043DFF8BCC023
:1017E000CCF8000006E02D480068A043DFF8ACC04C
:1017F000CCF800004868800307D5294800682043DA
:10180000DFF89CC0CCF8000006E025480068A04343
:10181000DFF88CC0CCF800004868C00207D521482A
:1018200000682043DFF87CC0CCF8000006E01D48CB
:101830000068A043DFF86CC0CCF800004868800264
:1018400007D5194800682043DFF85CC0CCF80000D9
:1018500006E015480068A043DFF84CC0CCF8000053
:101860001EF1010EF5E6BDE8F18300000000111045
:1018700000001210000021100000221000003110A2
:10188000000032101810024008000140000801401A
:10189000000C014000100140001401400004014010
:1018A00004040140080401400C040140010000222E
:1018B000002901D101202BE00B68DFF8C001C3181B
:1018C0001420B3FBF0F080000864DFF8B401C863B3
:1018D000022081F82100086803686FF30D1348683F
:1018E000034388680343C86803430869034348699E
:1018F000034388690343C869034308680360002001
:101900008863012081F82100002081F82000002058
:10191000704770B50400E06B056820680668042114
:10192000206C81400D423ED070073CD52068006895
:10193000800605D42068006830F004002168086043
:1019400020685049884201D1042023E020684E4994
:10195000884201D140201DE020684C49884202D1D4
:101960004FF4806016E020684949884202D14FF464
:1019700080400FE020684749884202D15FF4802010
:1019800008E020684449884202D15FF4800001E009
:101990005FF0806041490860E06A00286DD0200057
:1019A000E16A884769E00221206C81400D4244D001
:1019B000B00742D520680068800608D42068006817
:1019C00030F00A0021680860012084F821002068B6
:1019D0002C49884201D1022023E020682A4988420C
:1019E00001D120201DE020682849884202D14FF40F
:1019F000007016E020682649884202D14FF400505A
:101A00000FE020682349884202D15FF4003008E0EB
:101A100020682149884202D15FF4001001E05FF0A4
:101A200000701E490860002084F82000A06A002889
:101A300023D02000A16A88471FE00821206C814044
:101A40000D421AD0300718D52068006830F00E001B
:101A5000216808600121206C8140E06B4160012019
:101A6000A063012084F82100002084F82000206B6E
:101A7000002802D02000216B884770BDF8FFFDBF11
:101A800000000240080002401C00024030000240FA
:101A900044000240580002406C0002400400024032
:101AA00010B40300002493F82000012801D1022083
:101AB00022E0012083F8200093F82100012814D1AE
:101AC0000800C0B2002805D0022807D004D303289C
:101AD00006D007E09A620AE0DA6208E01A6306E0DC
:101AE0005A6304E00120040001E00120040000200A
:101AF00083F820002000C0B210BC704710B504006D
:101B0000002C01D101202FE094F83D00002805D1E0
:101B1000002084F83C00200000F054F9022084F8F2
:101B20003D00211D206800F050F8012084F8460097
:101B3000012084F83E00012084F83F00012084F851
:101B40004000012084F84100012084F84200012077
:101B500084F84300012084F84400012084F8450003
:101B6000012084F83D00002010BD70B504000D0078
:101B7000160094F83C00012801D1022024E0012045
:101B800084F83C003000002806D0042809D008283A
:101B90000CD00C280FD013E02900206800F047F883
:101BA0000EE02900206800F06FF809E029002068A5
:101BB00000F09CF804E02900206800F0C8F8FFE776
:101BC000002084F83C00002070BD0368714A9042F8
:101BD00008D0B0F1804F05D06F4A904202D06F4AD2
:101BE000904203D133F070034A681343694A90422C
:101BF00008D0B0F1804F05D0674A904202D0674AC2
:101C0000904203D133F44073CA68134333F0800326
:101C10004A69134303608A68C2620A6882625D4A45
:101C2000904201D10A69026301224261704730B4D7
:101C3000026A520852000262046A4568836933F0FE
:101C400070039B089B000A68134334F002048A68FF
:101C50001443504A904205D134F00804CA68144332
:101C600034F004044B4A904207D135F4807535F4C2
:101C700000754A6915438A691543456083614A685E
:101C80004263046230BC704730B4026A32F0100222
:101C90000262036A4468826932F4E04232F44072BC
:101CA0000D6852EA052233F020038D6853EA0513CC
:101CB000384DA84206D133F08003CD6853EA0513AE
:101CC00033F04003334DA84209D134F4806434F436
:101CD00000644D6954EA85048D6954EA85044460C2
:101CE00082614D688563036230BC704730B4026A1C
:101CF00032F480720262046A4568C36933F070038B
:101D00009B089B000A68134334F400748A6854EA01
:101D10000224204A904206D134F40064CA6854EA8E
:101D2000022434F480641B4A904209D135F4805572
:101D300035F400554A6955EA02158A6955EA0215D3
:101D40004560C3614A68C263046230BC704730B406
:101D5000026A32F480520262036A4468C26932F451
:101D6000E04232F440720D6852EA052233F4005327
:101D70008D6853EA0533074DA84204D134F48044FA
:101D80004D6954EA85144460C2614D68056403627C
:101D900030BC7047002C01400004004000080040A7
:101DA00030B4012411F01F0314FA03F3046A9C43B6
:101DB0000462046A11F01F0512FA05F52C4304624F
:101DC00030BC70477047000000204C4988710020EB
:101DD0004A49C871002049494871002047490871A3
:101DE00047484649097911F0030150F82100434959
:101DF00008600020704738B504002000C0B20F28EA
:101E000059D23E4844713D4880793C4949798842DD
:101E100007D23A4840793949887128203749C87132
:101E200012E03648C079002805D03448C079401EF9
:101E30003249C87108E031488079002804D02F4821
:101E40008079401E2D498871FFF77AFB0025280014
:101E50002100C0B2C9B2884221D2284801682A00B4
:101E6000D2B20320424301EB020080780090234865
:101E700001682A00D2B20320424301EB02004378FA
:101E80001E4801682A00D2B2032042438A5C29001E
:101E9000C9B289B20020FFF77EFB6D1CD7E7002096
:101EA00000900023FF221548817989B20020FFF7B6
:101EB00072FBFFF757FA31BD10480079401C0F49FB
:101EC00008710F480D49097911F0030150F82100FC
:101ED0000A490860704780B540F2A561884201D385
:101EE000A0F2A46000F010F80649096800F01AF8A2
:101EF00000F084F8C0B202BD000000000004002021
:101F0000000000207825000850B1B0FA80F1884028
:101F1000C1F19D01C905020672F1004241EB10209A
:101F200070470000FF2212EAD05C1DBF12EAD153B5
:101F3000944593422BE09C44D30780EA010243EA94
:101F4000002043EA01211A40A1FB0030C04238BF03
:101F500000187CF17F010BDBFE294ADA5B0842EABC
:101F6000C15153EA006373F1004C51EB10207047EC
:101F7000D1F1080CDCF120012FDB5B0810FA01F134
:101F80000B4320FA0CF073F1004150417047944527
:101F90001CBF02EAD153934280EA010202F00042E0
:101FA0001DD0400019D0490017D05BB9634514D04B
:101FB0000902B1FA81F39940BCEB030CC00140F077
:101FC0000040C1E70002B0FA80FC10FA0CF0B3EB5D
:101FD0000C0CC90141F00041B6E710007047400009
:101FE0000AD0490008D010F1807F94BF11F1807FA2
:101FF00002E042F0FF407047D0437047C0F3C75142
:10200000D1F19E0108DD020242F00042CA4002EB1B
:10201000E07282EAE07070477FEAE07080F0004092
:102020007047000038B50024012500F07BF800F06F
:102030001CF800F053F8FFF7C1F8FFF7C5FE00F0F9
:1020400085F800F0B1F800F009F93249086031482C
:102050000068FFF740FF304908702F480078FFF70D
:10206000CAFE0A2000F012F9EDE700B58FB0282271
:10207000002105A800F01EF914220021684600F096
:1020800019F9012005905FF4803006900020079038
:102090000120099002200C905FF480300D905FF4D5
:1020A000E0100E9005A8FEF721F8002801D000F0FE
:1020B00037F80F20009002200190002002904FF48A
:1020C000806003900020049002216846FEF74FFADA
:1020D000002801D000F024F80FB000BD81B00F48F7
:1020E000006850F010000D4908600C48006810F0BE
:1020F0001000009000980948006850F0200007493F
:1021000008600648006810F020000090009801B0B8
:10211000704700000804002041040020181002400D
:1021200072B6FEE780B50848006850F01000064916
:1021300008600320FEF75EFC0020FEF755FB00F070
:10214000C3F8002002BD00000020024000B585B0A9
:102150001048006850F008000E4908600D480068FB
:1021600010F00800009000984FF4006001900A48B9
:1021700002900020039001A90848FFF763FA0022AB
:1021800000212820FEF73CFC2820FEF74EFC05B07D
:1021900000BD00001810024000002110000C01409A
:1021A00080B5FFF789FE01BD80B588B010220021FF
:1021B00004A800F07FF80C22002101A800F07AF8B2
:1021C0002E48006850F400702C4908602B480068C5
:1021D00010F40070009000982848006850F0080043
:1021E000264908602548006810F008000090009813
:1021F000012004900320059004A92148FFF722FA4A
:1022000020482149086000201F49886000201E499D
:10221000087300201C4908755FF460201A49C861E2
:102220000020194948600120174908611648FEF747
:1022300023FC002801D001200EE00820019001209D
:1022400002900020039001A90F48FEF702FE00282B
:1022500001D0012000E0002009B000BD80B50A488F
:10226000FEF7ACFC64210848FEF73DFD002803D1D1
:102270000548FEF7EBFD00E0002002BD181002400B
:10228000000C0140002401400C04002070B5040043
:10229000FEF7A4FA0500260016F1010F02D004484B
:1022A00000788619FEF79AFA401BB042FAD370BD47
:1022B0004004002010B5044610460A460146204658
:1022C00000F022F8204610BD81B00D48006850F0A3
:1022D00001000B4908600A48006810F001000090F6
:1022E00000980848006850F080500649086005488A
:1022F000006810F080500090009801B0704700BF57
:10230000181002401C10024062F30F2262F31F42B9
:10231000401810F0030308D0C91A1FD3DB0748BFC9
:1023200000F8012D28BF20F8022D130030B4144608
:102330001546103928BF20E93C00FAD8490728BFC4
:1023400020E90C0048BF40F8042D890028BF20F880
:10235000022D48BF00F8012D30BC7047C91818BFC6
:1023600000F8012DCB0728BF00F8012D70470000B1
:10237000FEE7FEE7FEE7FEE7FEE7704770477047BF
:1023800080B500F01BF801BD80B50B480068000562
:1023900005D54FF4006008490860FFF701FF01BD53
:1023A00080B505480068800704D50220024908600E
:1023B000FFF7F6FE01BD0000140401400348016868
:1023C0000348007841180148016070473C04002030
:1023D0004004002000FF0000FF0000FF0000FF009D
:1023E00000FF0000FF0000FF0000FF0000FF0000F2
:1023F000FF00FF8000FF8000FF8000FF8000FF00E3
:1024000000000000FF0000FF0000FF0000FF0000D0
:10241000FF0000FF0000FF0000FF0000FF0000FFC2
:102420000000FF0000FF0000FF0000FF0000FF00B1
:102430000000000000FF0000FF0000FF0000FF00A0
:1024400000FF0000FF0000FF0000FF0000FF000091
:10245000FF0000FF0000FF0000FF0000FF0000FF82
:10246000000000000000FF0000FF0000FF0000FF70
:102470000000FF0000FF0000FF0000FF0000FF0061
:1024800000FF0000FF0000FF0000FF0000FF000051
:10249000FF00000010B5074979441831064C7C4410
:1024A000163404E00A68081D114488470146A14219
:1024B000F8D110BD0800000014000000FFE3FFFF8A
:1024C0005A0100005C0000000000002000F00DF840
:1024D000002801D0FFF7DEFFAFF300800020AFF34C
:1024E0000080FFF79FFD00F002F80120704700F028
:1024F00001B800000746384600F002F8FBE700008C
:1025000080B5AFF30080024A11001820ABBEFBE794
:10251000260002000548014603B4684680F3098896
:10252000AFF30080AFF30080FFF7D0FFA5EDF5FE1D
:1025300002030405060708090A0B0C0D0E0F101004
:1025400002030405060708090A0B0C0D0E0F1010F4
:102550000000000000000000010203040607080953
:102560000148804701480047192600081525000842
:102570000000000001020304413ACD3BFFF7FEBF1B
:10258000FFF7FEBFFFF7FEBFFFF7FEBFFFF7FEBF7F
:10259000FFF7FEBFFFF7FEBFFFF7FEBFFFF7FEBF6F
:1025A000FFF7FEBFFFF7FEBFFFF7FEBFFFF7FEBF5F
:1025B000FFF7FEBFFFF7FEBFFFF7FEBFFFF7FEBF4F
:1025C000FFF7FEBFFFF7FEBFFFF7FEBFFFF7FEBF3F
:1025D000FFF7FEBFFFF7FEBFFFF7FEBFFFF7FEBF2F
:1025E000FFF7FEBFFFF7FEBFFFF7FEBFFFF7FEBF1F
:1025F000FFF7FEBFFFF7FEBFFFF7FEBFFFF7FEBF0F
:10260000FFF7FEBFFFF7FEBFFFF7FEBFFFF7FEBFFE
:10261000FFF7FEBFFFF7FEBF704710D4230008048A
:10262000240008342400086424000810FC0001245D
:10263000F48100810081008100810081008100948B
:08264000000005BD00010100CE
:0400000508002515B5
:00000001FF
