:020000040800F2
:1000000008080020E91A000881190008831900086F
:1000100085190008871900088919000800000000E8
:100020000000000000000000000000008B19000824
:100030008D190008000000008F19000891190008B0
:10004000F91A0008FD1A0008011B0008051B00082A
:10005000091B00080D1B0008111B0008151B0008D8
:10006000191B00081D1B0008211B0008251B000888
:10007000291B00082D1B0008311B0008351B000838
:10008000391B0008190D00083D1B0008411B000822
:10009000451B0008491B00084D1B0008511B0008A8
:1000A000551B0008591B00085D1B0008611B000858
:1000B0001F0D0008651B0008691B00086D1B000868
:1000C000711B0008751B0008791B00087D1B0008C8
:1000D000811B0008851B0008891B00088D1B000878
:1000E00099190008911B0008951B0008F8B5040039
:1000F000002C01D1012039E22078C00740F1848032
:10010000DFF87806006810F00C0004280BD0DFF848
:100110006C06006810F00C0008280ED1DFF85C06B1
:100120000068C00309D5DFF85006006880036BD56E
:100130006068002868D1012018E26068B0F5803F4F
:1001400008D1DFF83406006850F48030DFF8281654
:10015000086038E06068002810D1DFF81C060068ED
:1001600030F48030DFF810160860DFF80C06006805
:1001700030F48020DFF80016086024E06068B0F5F5
:10018000A02F10D1DFF8F005006850F48020DFF8D0
:10019000E8150860DFF8E005006850F48030DFF80B
:1001A000D81508600FE0DFF8D005006830F4803023
:1001B000DFF8C4150860DFF8C005006830F480205F
:1001C000DFF8B4150860606800280ED000F0F6FA79
:1001D0000500DFF8A4050068800315D400F0EEFAEE
:1001E000401B6528F5D30320C0E100F0E7FA0500C5
:1001F000DFF884050068800306D500F0DFFA401BB5
:100200006528F5D30320B1E1207880075CD5DFF8BD
:100210006C05006810F00C0F0BD0DFF8600500686B
:1002200010F00C0008281AD1DFF850050068C00350
:1002300015D4DFF844050068800704D5206901283B
:1002400001D0012092E1DFF83005006830F0F800BD
:10025000616950EAC100DFF82015086034E02069C8
:1002600000281ED00120DFF82815086000F0A6FA4B
:100270000500DFF804050068800706D400F09EFA48
:10028000401B0328F5D3032070E1DFF8EC0400687D
:1002900030F0F800616950EAC100DFF8DC14086052
:1002A00012E00020DFF8E814086000F087FA05008B
:1002B000DFF8C4040068800706D500F07FFA401B11
:1002C0000328F5D3032051E1207800072CD5A0693D
:1002D000002816D00120DFF8BC14086000F06EFA88
:1002E0000500DFF8A8040068800706D400F066FA6D
:1002F000401B0328F5D3032038E1012000F028FA41
:1003000012E00020DFF88C14086000F057FA0500B6
:10031000DFF878040068800706D500F04FFA401B2C
:100320000328F5D3032021E12078400740F1A8807D
:100330000027DFF864040068C00010D4DFF8580418
:10034000006850F08050DFF850140860DFF848046F
:10035000006810F080500090009801200700DFF83E
:100360003C040068C00516D4DFF83004006850F47F
:100370008070DFF82814086000F020FA0500DFF82C
:100380001C040068C00506D400F018FA401B65285C
:10039000F5D30320EAE0E068012808D1DFF8000483
:1003A000006850F00100DFF8F813086037E0E068FB
:1003B000002810D1DFF8E803006840084000DFF8AB
:1003C000E0130860DFF8D803006830F00400DFF8BD
:1003D000D013086023E0E068052810D1DFF8C003DF
:1003E000006850F00400DFF8B8130860DFF8B003CD
:1003F000006850F00100DFF8A81308600FE0DFF894
:10040000A003006840084000DFF894130860DFF89C
:100410009003006830F00400DFF884130860E0689F
:10042000002810D000F0CAF90500DFF87403006856
:10043000800719D400F0C2F9401B41F2893188428B
:10044000F3D3032092E000F0B9F90500DFF8500380
:100450000068800708D500F0B1F9401B41F28931EE
:100460008842F3D3032081E03800C0B2012807D1CD
:10047000DFF82403006830F08050DFF81C130860B8
:10048000E069002871D0DFF8F402006810F00C0079
:10049000082855D0E06902283FD10020DFF8041376
:1004A000086000F08BF90700DFF8CC0200688001DB
:1004B00006D500F083F9C01B0328F5D3032055E0CF
:1004C000206AB0F5803F09D1DFF8B002016831F44D
:1004D0000031A0680143DFF8A4020160DFF89C024C
:1004E000016831F47411206A0143606A0143DFF846
:1004F0008C0201600120DFF8AC12086000F05EF9A8
:100500000500DFF87402006880012ED400F056F96F
:10051000401B0328F5D3032028E00020DFF88412D5
:10052000086000F04BF90500DFF84C02006880011C
:100530001BD500F043F9401B0328F5D3032015E039
:10054000E069012801D1012010E0DFF830020068E5
:10055000060016F48030216A884204D116F4701027
:10056000616A884201D0012000E00020F2BD70B530
:1005700004000D00002C01D10120AFE0DFF82802BB
:10058000006810F00700A84211D2DFF81C020068D2
:10059000C008C0002843DFF810120860DFF8080226
:1005A000006810F00700A84201D0012096E02078F2
:1005B00080071FD52078400707D5DFF8C001006805
:1005C00050F4E060DFF8B41108602078000707D528
:1005D000DFF8A801006850F46050DFF8A01108604F
:1005E000DFF89801016831F0F001A0680143DFF8FD
:1005F0008C0101602078C00734D56068012806D1DD
:10060000DFF874010068800310D4012066E06068A0
:10061000022805D158480068800107D401205DE018
:1006200055480068800701D4012057E0534801680D
:1006300089088900606801435048016000F0BEF8F5
:1006400006004E48006810F00C006168B0EB810FA6
:1006500008D000F0B3F8801B41F289318842F0D312
:1006600003203BE05048006810F0070085420ED29E
:100670004D480068C008C00028434B4908604A48FC
:10068000006810F00700A84201D0012026E0207881
:10069000400707D53948016831F4E061E06801435B
:1006A000364801602078000708D53448006830F4E7
:1006B0006050216950EAC1003049086000F00FF82D
:1006C0003A492E4A1268C2F30312895CC8402D4988
:1006D00008602D48006800F077F8002070BD78B5FC
:1006E00085B001A83249102200F094F83148008802
:1006F000ADF80000002000210022002300241F4D3F
:100700002D6815F00C06042E02D0082E02D01CE035
:100710001B481BE001A8C5F38346805D0300E80386
:100720000DD56846154E3668C6F34046805D01001B
:10073000134800FB03F0B0FBF1F0020003E01E4899
:1007400000FB03F00200100000E00D4806B070BD91
:1007500081B00C490968C9084FF47A72B1FBF2F113
:1007600001FB00F1009100BF00994A1E0092002990
:10077000F9D101B07047000000100240041002409F
:1007800000127A000C000020080000202410024013
:1007900000004242800442421C10024000700040AF
:1007A000201002406000424200200240D81A000897
:1007B000C81A0008DE0E000800093D000148006864
:1007C000704700BF0004002010B504004FF47A7099
:1007D0000D490978B0FBF1F00C490968B1FBF0F064
:1007E00000F01AF9002801D001200CE0102C09D2E9
:1007F000002221005FF0FF3000F0F2F804480460AE
:10080000002000E0012010BD040400200C000020A6
:1008100008000020103A07D330B4B1E83810103A7D
:10082000A0E83810F9D230BC530724BFB1E8081053
:10083000A0E8081044BF51F8043B40F8043BD2073D
:1008400024BF31F8022B20F8022B44BF0B78037031
:100850007047121F17D35B0009D151F8043B20F8F1
:10086000023B1B0C121F20F8023BF6D20BE051F8A2
:10087000043B00F8013B1B0A20F8023B1B0C121F33
:1008800000F8013BF3D238BF121D521E24BF11F8ED
:10089000013B00F8013BF8D8704730B50168846827
:1008A0004218416802EB5103C90703D54C4401E0EB
:1008B000491C08D19A4218BF12F9011B01D10C3012
:1008C00030BD12F8015B002904F8015BF0D4491E29
:1008D000F7D5EFE710F0070356490A684FF6FF0116
:1008E0000A4052EA032254490A4352490A607047B7
:1008F00050480068C0F302207047010049B2002947
:1009000009D4012210F01F018A404C4903005BB258
:100910005B0941F823207047010049B2002909D43E
:10092000012210F01F018A40454903005BB25B09B8
:1009300041F82320704710B4020052B2002A05D4B7
:100940000A01404B040064B21A5508E00A013E4B0C
:10095000040064B214F00F04234403F8042C10BC08
:10096000704770B4030013F00704D4F107000528A2
:1009700001D3042001E0D4F10700251D072D01D289
:10098000002500E0E51E012616FA00F0401E014099
:10099000A940012010FA05F56D1E2A4011430800F8
:1009A00070BC704710B50400601EB0F1807F01D3A9
:1009B00001200EE0601E254908600F215FF0FF3026
:1009C000FFF7B9FF0020224908600720214908608D
:1009D000002010BD10B504002000FFF77BFF10BD04
:1009E0002DE9F04104000D0016000027FFF780FFFD
:1009F0008046320029004046FFF7B3FF0100200087
:100A000040B2FFF798FFBDE8F08110B50400200068
:100A100040B2FFF772FF10BD10B504002000FFF7D1
:100A2000C1FF10BD10B50400200040B2FFF774FFF5
:100A300010BD00000CED00E00000FA0500E100E050
:100A400080E200E000E400E018ED00E014E000E0E7
:100A500018E000E010E000E02DE9F04190B0DFF890
:100A60005484D8F8FC0F40F00400C8F8FC0FD8F804
:100A7000FC0F00F00400009000980120009001900D
:100A800003200390002002906946DFF82C0400F058
:100A900027FAD8F8F80F40F00100C8F8F80FD8F896
:100AA000F80F00F0010000900098DFF81044C4F83F
:100AB0000080102060600020A060E060A0614FF422
:100AC000807626614FF4806767614FF40055E561D9
:100AD000204600F039FB002840F08C8008F13C00F3
:100AE00060641020A0640020E06480202065002065
:100AF000E0656665A765256604F1440000F024FB07
:100B0000002877D108F16400C4F888001020C4F8E8
:100B10008C000020C4F89000C4F89400C4F8A00031
:100B2000C4F89860C4F89C70C4F8A45004F188001C
:100B300000F00AFB00285DD10FF22122002104F110
:100B4000880000F0FBFB0FF29122022104F18800E3
:100B500000F0F4FB012200211120FFF741FF1120DA
:100B6000FFF753FFD648016841F0010101600068BA
:100B700000F00100009000984FF08040C4F89C0302
:100B80001D20C4F8A803CF480068CF49B0FBF1F09E
:100B9000401E80B2C4F8A0030020C4F8AC03C4F81F
:100BA000A40304F5677000F0F7FB18BB08900A90E7
:100BB00008200990002208A904F5677000F023FCC2
:100BC000C0B90190039015200290042201A904F5F8
:100BD000677000F018FC68B9022200211C20FFF7A2
:100BE000FFFE1C20FFF711FF042084F8E40310B07F
:100BF000BDE8F081012084F8E40310B0BDE8F08185
:100C000070B5AE4C94F8E4030428FBD1022084F8BC
:100C1000E4034FF080411D20C8620122206C02FADB
:100C200000F0E36B586023684FF4B4755D60606852
:100C3000102803D1A5489860A7A002E0A6A098605C
:100C4000A248D860D4F8840002FA00F0D4F880609A
:100C50007060666C7560A06C102804D19B48B06011
:100C600004F1CC0003E004F1CC00B0609748F060E0
:100C7000D4F8C8008240D4F8C4004260D4F8880098
:100C80004560D4F88C20102A04D1904A826000BFBD
:100C900092A202E091A282608C4AC2608C4AF02546
:100CA00015604FF4702515604FF07065156002688F
:100CB00042F00E0202601A6842F001021A603268C5
:100CC00042F001023260026842F00102026000203C
:100CD0000861D4F89C03C16841F48071C160C168A7
:100CE00041F40071C160C16841F48061C1600122BA
:100CF00000214FF0804000F0A1FC012204214FF0C0
:100D0000804000F09BFCD4F89C031D2141620168E7
:100D100041F00101016070BD6E4800F048BA00B5B5
:100D200081B01C20FFF77EFE6448D0F89C130A6A4D
:100D300041F211131A4202BF0A6A40F244431A42B6
:100D400003D10A68520852000A60CA685208520069
:100D5000CA60042180F8E41301B000BD10B5112071
:100D6000FFF760FE554C20680168490849000160A2
:100D7000606C0168490849000160D4F88800016886
:100D8000490849000160D4F89C03C16821F48071CE
:100D9000C160C16821F40071C160C16821F4806143
:100DA000C160002200214FF0804000F047FC00228B
:100DB00004214FF0804000F041FC4FF0804040F2B1
:100DC000DC51C16200214162D4F89C03C16841F04A
:100DD0000101C16010BD0000FEE70000DFF8DC008B
:100DE00090F8E4130429FBD100F1CC020F214FF657
:100DF000FE7C042013880CEA03031380138A0CEA98
:100E000003031382138C0CEA0303138453880CEA44
:100E100003035380538A0CEA03035382538C0CEA76
:100E200003035384121D401EE4D12032491EE0D139
:100E30007047002800D07047F0B40F291F4890F881
:100E4000E44335D2042CFDD1002401EB4105E90037
:100E500000EB410000F1CC0104980D884FF6FE76BE
:100E600035400D800E8A4FF6FE773E400E820F8C85
:100E70004FF6FE7C0CEA07070F8403FA04FC4FEAE6
:100E8000EC1C0CF0010C4CEA05050D8002FA04F58F
:100E9000ED1105F001052E430E8200FA04F5ED1167
:100EA00005F001052F430F84641C891C082CD4DB3A
:100EB000F0BC70471C0002400008014010000020F8
:100EC0001C1002400C00002000366E010C0801408E
:100ED0000400024098000020FFFF00000000010213
:100EE0002DE9F84302005FF0000E5FF0000808688B
:100EF00030FA0EF0002800F00481012010FA0EF004
:100F000003000868184004009C4240F0F7804868DD
:100F1000002831D0012820D0022825D003283CD039
:100F200011281DD0122823D0DFF8DCC1604523D062
:100F3000DFF8D8C160451FD0DFF8D4C160451BD0B1
:100F4000DFF8D0C1604517D0DFF8CCC1604513D0C1
:100F5000DFF8C8C160450FD022E0C86880461FE0B6
:100F6000C868001D80461BE0C8680830804617E04E
:100F7000C8680C30804613E08868002802D104203D
:100F8000804609E08868012803D108208046136163
:100F900002E008208046536102E000208046FFE71F
:100FA000B4F5807F01D2160000E0161DB4F5807FF5
:100FB00002D25FEA8E0702E0BEF10807BF00D6F852
:100FC00000C00F20B8403CEA000C18FA07F050EAC5
:100FD0000C0CC6F800C04868C00040F18F80504833
:100FE000006850F00100DFF838C1CCF800004C4830
:100FF000006810F00100009000984A48F4465FEA4B
:101000009C0C50F82CC05FF00F091EF00300C0B21A
:10101000800019FA00F93CEA090C4348824202D1E7
:101020005FF0000913E04148824202D15FF00109FC
:101030000DE03F48824202D15FF0020907E03D48DF
:10104000824202D15FF0030901E05FF004096546C6
:101050001EF00300C0B2800019FA00F959EA050534
:101060003048F4465FEA9C0C40F82C504868C003B6
:1010700007D5314800682043DFF8BCC0CCF8000039
:1010800006E02D480068A043DFF8ACC0CCF80000B3
:101090004868800307D5294800682043DFF89CC0D2
:1010A000CCF8000006E025480068A043DFF88CC0BB
:1010B000CCF800004868C00207D5214800682043EA
:1010C000DFF87CC0CCF8000006E01D480068A043B3
:1010D000DFF86CC0CCF800004868800207D51948DA
:1010E00000682043DFF85CC0CCF8000006E015483B
:1010F0000068A043DFF84CC0CCF800001EF1010EE0
:10110000F5E6BDE8F18300000000111000001210A8
:1011100000002110000022100000311000003210E9
:10112000181002400800014000080140000C014076
:10113000001001400014014000040140040401407B
:10114000080401400C04014001000022002901D1E3
:1011500001202BE00B68DFF8C001C3181420B3FB9B
:10116000F0F080000864DFF8B401C863022081F861
:101170002100086803686FF30D134868034388680B
:101180000343C86803430869034348690343886904
:101190000343C86903430868036000208863012093
:1011A00081F82100002081F820000020704770B5F0
:1011B0000400E06B0568206806680421206C81400B
:1011C0000D423ED070073CD520680068800605D4EB
:1011D0002068006830F004002168086020685049E9
:1011E000884201D1042023E020684E49884201D181
:1011F00040201DE020684C49884202D14FF48060B5
:1012000016E020684949884202D14FF480400FE03F
:1012100020684749884202D15FF4802008E02068B6
:101220004449884202D15FF4800001E05FF08060B1
:1012300041490860E06A00286DD02000E16A8847D3
:1012400069E00221206C81400D4244D0B00742D5B4
:1012500020680068800608D42068006830F00A0022
:1012600021680860012084F8210020682C49884208
:1012700001D1022023E020682A49884201D12020A0
:101280001DE020682849884202D14FF4007016E022
:1012900020682649884202D14FF400500FE02068B0
:1012A0002349884202D15FF4003008E020682149D8
:1012B000884202D15FF4001001E05FF000701E4927
:1012C0000860002084F82000A06A002823D02000B5
:1012D000A16A88471FE00821206C81400D421AD086
:1012E000300718D52068006830F00E0021680860CB
:1012F0000121206C8140E06B41600120A06301204E
:1013000084F82100002084F82000206B002802D0FF
:101310002000216B884770BDF8FFFDBF0000024030
:10132000080002401C00024030000240440002401D
:10133000580002406C0002400400024010B4030058
:10134000002493F82000012801D1022022E001208E
:1013500083F8200093F82100012814D10800C0B2BE
:10136000002805D0022807D004D3032806D007E0C0
:101370009A620AE0DA6208E01A6306E05A6304E05F
:101380000120040001E001200400002083F8200077
:101390002000C0B210BC704710B50400002C01D171
:1013A00001202FE094F83D00002805D1002084F8AA
:1013B0003C00200000F054F9022084F83D00211D7B
:1013C000206800F050F8012084F84600012084F8DD
:1013D0003E00012084F83F00012084F840000120F5
:1013E00084F84100012084F84200012084F8430081
:1013F000012084F84400012084F84500012084F88D
:101400003D00002010BD70B504000D00160094F8DA
:101410003C00012801D1022024E0012084F83C0096
:101420003000002806D0042809D008280CD00C2849
:101430000FD013E02900206800F047F80EE02900E3
:10144000206800F06FF809E02900206800F09CF89F
:1014500004E02900206800F0C8F8FFE7002084F8C5
:101460003C00002070BD0368714A904208D0B0F182
:10147000804F05D06F4A904202D06F4A904203D10C
:1014800033F070034A681343694A904208D0B0F1C0
:10149000804F05D0674A904202D0674A904203D1FC
:1014A00033F44073CA68134333F080034A6913432B
:1014B00003608A68C2620A6882625D4A904201D112
:1014C0000A69026301224261704730B4026A52081D
:1014D00052000262046A4568836933F070039B0816
:1014E0009B000A68134334F002048A681443504A8C
:1014F000904205D134F00804CA68144334F004045F
:101500004B4A904207D135F4807535F400754A692D
:1015100015438A691543456083614A6842630462E2
:1015200030BC704730B4026A32F010020262036AC3
:101530004468826932F4E04232F440720D6852EA43
:10154000052233F020038D6853EA0513384DA84275
:1015500006D133F08003CD6853EA051333F040031E
:10156000334DA84209D134F4806434F400644D69E9
:1015700054EA85048D6954EA8504446082614D68AB
:101580008563036230BC704730B4026A32F4807203
:101590000262046A4568C36933F070039B089B00CC
:1015A0000A68134334F400748A6854EA0224204A17
:1015B000904206D134F40064CA6854EA022434F438
:1015C00080641B4A904209D135F4805535F40055AA
:1015D0004A6955EA02158A6955EA02154560C361F0
:1015E0004A68C263046230BC704730B4026A32F4A5
:1015F00080520262036A4468C26932F4E04232F403
:1016000040720D6852EA052233F400538D6853EAA4
:101610000533074DA84204D134F480444D6954EA9F
:1016200085144460C2614D680564036230BC704734
:10163000002C0140000400400008004030B40124A8
:1016400011F01F0314FA03F3046A9C430462046A52
:1016500011F01F0512FA05F52C43046230BC7047E7
:101660007047000038B50024012500F079F800F03B
:101670001FF800F056F8FFF7EFF900F085F800F0DA
:10168000DFF82800C0B2012805D1641C0F2C07D157
:101690000020050004E0641E002C01D1012005009B
:1016A0002000C0B200F081F80A2000F0F7F8E8E767
:1016B00000B58FB02822002105A800F003F91422FC
:1016C0000021684600F0FEF8012005905FF48030AC
:1016D0000690002007900120099002200C905FF4F2
:1016E00080300D905FF4E0100E9005A8FEF7FEFC30
:1016F000002801D000F032F80F2000900220019065
:10170000002002904FF4806003900020049002219A
:101710006846FEF72CFF002801D000F01FF80FB03C
:1017200000BD81B00C48006850F010000A49086004
:101730000948006810F01000009000980648006802
:1017400050F02000044908600348006810F02000B1
:101750000090009801B070471810024072B6FEE782
:1017600080B50848006850F0100006490860032062
:10177000FFF730F90020FFF727F800F0ADF8002060
:1017800002BD00000020024000202B4948710020CB
:101790002949087129482849097911F0010150F8AF
:1017A0002100254908600020704738B5040020005A
:1017B000C0B210282ED220484471FFF70FFB00253D
:1017C00028002100C0B2C9B2884221D21A4801685B
:1017D0002A00D2B20320424301EB0200807800903D
:1017E000154801682A00D2B20320424301EB0200EF
:1017F0004378114801682A00D2B2032042438A5C30
:101800002900C9B289B20020FFF713FB6D1CD7E78E
:10181000FFF7F6F931BD08480079401C0649087108
:1018200006480549097911F0010150F821000249E3
:101830000860704700000000F8030020000000204E
:1018400000B585B01048006850F008000E490860E7
:101850000D48006810F00800009000984FF40060F8
:1018600001900A4802900020039001A90848FFF760
:1018700037FB002200212820FFF7B2F82820FFF7CD
:10188000C4F805B000BD000018100240000021108F
:10189000000C014080B5FFF7BEFF01BD70B504002C
:1018A000FEF78CFF0500260016F1010F02D0044858
:1018B00000788619FEF782FF401BB042FAD370BD54
:1018C0000404002010B5044610460A46014620468E
:1018D00000F022F8204610BD81B00D48006850F09D
:1018E00001000B4908600A48006810F001000090F0
:1018F00000980848006850F0805006490860054884
:10190000006810F080500090009801B0704700BF50
:10191000181002401C10024062F30F2262F31F42B3
:10192000401810F0030308D0C91A1FD3DB0748BFC3
:1019300000F8012D28BF20F8022D130030B4144602
:101940001546103928BF20E93C00FAD8490728BFBE
:1019500020E90C0048BF40F8042D890028BF20F87A
:10196000022D48BF00F8012D30BC7047C91818BFC0
:1019700000F8012DCB0728BF00F8012D70470000AB
:10198000FEE7FEE7FEE7FEE7FEE7704770477047B9
:1019900080B500F00FF801BD80B50548006800056E
:1019A00005D54FF4006002490860FFF773FF01BDE1
:1019B00014040140034801680348007841180148B5
:1019C00001607047000400200404002000FF0000B4
:1019D000FF0000FF0000FF0000FF0000FF0000FF0D
:1019E0000000FF0000FF0000FF00FF8000FF8000FC
:1019F000FF8000FF8000FF0000000000FF0000FFEC
:101A00000000FF0000FF0000FF0000FF0000FF00DB
:101A100000FF0000FF0000FF0000FF0000FF0000CB
:101A2000FF0000FF0000FF000000000010B50749A4
:101A300079441831064C7C44163404E00A68081DC9
:101A4000114488470146A142F8D110BD08000000AA
:101A50001400000047EEFFFF420100004A000000B2
:101A60000000002000F00DF8002801D0FFF7DEFF95
:101A7000AFF300800020AFF30080FFF7F3FD00F02C
:101A800002F80120704700F001B800000746384610
:101A900000F002F8FBE7000080B5AFF30080024AD7
:101AA00011001820ABBEFBE72600020005480146E6
:101AB00003B4684680F30988AFF30080AFF3008079
:101AC000FFF7D0FFA5EDF5FE0203040506070809A0
:101AD0000A0B0C0D0E0F101000000000000000009B
:101AE000010203040607080901488047014800472E
:101AF000991B0008AD1A0008FFF7FEBFFFF7FEBFF5
:101B0000FFF7FEBFFFF7FEBFFFF7FEBFFFF7FEBF09
:101B1000FFF7FEBFFFF7FEBFFFF7FEBFFFF7FEBFF9
:101B2000FFF7FEBFFFF7FEBFFFF7FEBFFFF7FEBFE9
:101B3000FFF7FEBFFFF7FEBFFFF7FEBFFFF7FEBFD9
:101B4000FFF7FEBFFFF7FEBFFFF7FEBFFFF7FEBFC9
:101B5000FFF7FEBFFFF7FEBFFFF7FEBFFFF7FEBFB9
:101B6000FFF7FEBFFFF7FEBFFFF7FEBFFFF7FEBFA9
:101B7000FFF7FEBFFFF7FEBFFFF7FEBFFFF7FEBF99
:101B8000FFF7FEBFFFF7FEBFFFF7FEBFFFF7FEBF89
:101B9000FFF7FEBFFFF7FEBF704708CC190008FC37
:101BA00019000810FC000124F481008100810081EB
:0F1BB0000081008100810094000005F100000118
:0400000508001AAD28
:00000001FF
