:020000040800F2
:1000000058090020492C0008C9290008CB290008FC
:10001000CD290008CF290008D129000800000000E0
:10002000000000000000000000000000D3290008CC
:10003000D529000800000000D7290008D9290008A8
:10004000652C0008692C00086D2C0008712C000834
:10005000752C0008792C00087D2C0008F92900086F
:10006000812C0008852C0008892C0008192A00081A
:100070008D2C0008912C0008952C0008992C000864
:100080009D2C0008CD1600080F2A0008A12C00089E
:10009000A52C0008A92C0008AD2C0008B12C0008E4
:1000A000B52C0008B92C0008BD2C0008C12C000894
:1000B000D3160008C52C0008C92C0008CD2C000858
:1000C000D12C0008D52C0008D92C0008DD2C000804
:1000D000E12C0008E52C0008E92C0008ED2C0008B4
:1000E000E1290008F12C0008F52C0008F8B50400FF
:1000F000002C01D1012039E22078C00740F1848032
:10010000DFF89406006810F00C0004280BD0DFF82C
:100110008806006810F00C0008280ED1DFF8780679
:100120000068C00309D5DFF86C06006880036BD552
:100130006068002868D1012018E26068B0F5803F4F
:1001400008D1DFF85006006850F48030DFF844161C
:10015000086038E06068002810D1DFF838060068D1
:1001600030F48030DFF82C160860DFF828060068CD
:1001700030F48020DFF81C16086024E06068B0F5D9
:10018000A02F10D1DFF80C06006850F48020DFF8B3
:1001900004160860DFF8FC05006850F48030DFF8D2
:1001A000F41508600FE0DFF8EC05006830F48030EB
:1001B000DFF8E0150860DFF8DC05006830F4802027
:1001C000DFF8D0150860606800280ED000F006FB4C
:1001D0000500DFF8C0050068800315D400F0FEFAC2
:1001E000401B6528F5D30320C0E100F0F7FA0500B5
:1001F000DFF8A0050068800306D500F0EFFA401B89
:100200006528F5D30320B1E1207880075CD5DFF8BD
:100210008805006810F00C0F0BD0DFF87C05006833
:1002200010F00C0008281AD1DFF86C050068C00334
:1002300015D4DFF860050068800704D5206901281F
:1002400001D0012092E1DFF84C05006830F0F800A1
:10025000616950EAC100DFF83C15086034E02069AC
:1002600000281ED00120DFF84415086000F0B6FA1F
:100270000500DFF820050068800706D400F0AEFA1C
:10028000401B0328F5D3032070E1DFF80805006860
:1002900030F0F800616950EAC100DFF8F814086036
:1002A00012E00020DFF80415086000F097FA05005E
:1002B000DFF8E0040068800706D500F08FFA401BE5
:1002C0000328F5D3032051E1207800072CD5A0693D
:1002D000002816D00120DFF8D814086000F07EFA5C
:1002E0000500DFF8C4040068800706D400F076FA41
:1002F000401B0328F5D3032038E1012000F036FA33
:1003000012E00020DFF8A814086000F067FA05008A
:10031000DFF894040068800706D500F05FFA401B00
:100320000328F5D3032021E12078400740F1A8807D
:100330000027DFF880040068C00010D4DFF87404E0
:10034000006850F08050DFF86C140860DFF8640437
:10035000006810F080500090009801200700DFF83E
:1003600058040068C00516D4DFF84C04006850F447
:100370008070DFF84414086000F030FA0500DFF800
:1003800038040068C00506D400F028FA401B652830
:10039000F5D30320EAE0E068012808D1DFF81C0467
:1003A000006850F00100DFF81414086037E0E068DE
:1003B000002810D1DFF80404006840084000DFF88E
:1003C000FC130860DFF8F403006830F00400DFF885
:1003D000EC13086023E0E068052810D1DFF8DC03A7
:1003E000006850F00400DFF8D4130860DFF8CC0395
:1003F000006850F00100DFF8C41308600FE0DFF878
:10040000BC03006840084000DFF8B0130860DFF864
:10041000AC03006830F00400DFF8A0130860E06867
:10042000002810D000F0DAF90500DFF8900300682A
:10043000800719D400F0D2F9401B41F2893188427B
:10044000F3D3032092E000F0C9F90500DFF86C0354
:100450000068800708D500F0C1F9401B41F28931DE
:100460008842F3D3032081E03800C0B2012807D1CD
:10047000DFF84003006830F08050DFF83813086080
:10048000E069002871D0DFF81003006810F00C005C
:10049000082855D0E06902283FD10020DFF820135A
:1004A000086000F09BF90700DFF8E80200688001AF
:1004B00006D500F093F9C01B0328F5D3032055E0BF
:1004C000206AB0F5803F09D1DFF8CC02016831F431
:1004D0000031A0680143DFF8C0020160DFF8B80214
:1004E000016831F47411206A0143606A0143DFF846
:1004F000A80201600120DFF8C812086000F06EF960
:100500000500DFF89002006880012ED400F066F943
:10051000401B0328F5D3032028E00020DFF8A012B9
:10052000086000F05BF90500DFF8680200688001F0
:100530001BD500F053F9401B0328F5D3032015E029
:10054000E069012801D1012010E0DFF84C020068C9
:10055000060016F48030216A884204D116F4701027
:10056000616A884201D0012000E00020F2BD70B530
:1005700004000D00002C01D10120AFE0DFF844029F
:10058000006810F00700A84211D2DFF838020068B6
:10059000C008C0002843DFF82C120860DFF82402EE
:1005A000006810F00700A84201D0012096E02078F2
:1005B00080071FD52078400707D5DFF8DC010068E9
:1005C00050F4E060DFF8D01108602078000707D50C
:1005D000DFF8C401006850F46050DFF8BC11086017
:1005E000DFF8B401016831F0F001A0680143DFF8E1
:1005F000A80101602078C00734D56068012806D1C1
:10060000DFF890010068800310D4012066E0606884
:10061000022805D15F480068800107D401205DE011
:100620005C480068800701D4012057E05A480168FF
:1006300089088900606801435748016000F0CEF8DE
:1006400006005548006810F00C006168B0EB810F9F
:1006500008D000F0C3F8801B41F289318842F0D302
:1006600003203BE05748006810F0070085420ED297
:1006700054480068C008C0002843524908605148E7
:10068000006810F00700A84201D0012026E0207881
:10069000400707D54048016831F4E061E068014354
:1006A0003D4801602078000708D53B48006830F4D9
:1006B0006050216950EAC1003749086000F00FF826
:1006C0004149354A1268C2F30312895CC840344973
:1006D00008603448006800F087F8002070BD78B5E5
:1006E00085B001A83949102200F0A4F838480088E4
:1006F000ADF8000000200021002200230024264D38
:100700002D6815F00C06042E02D0082E02D01CE035
:1007100022481BE001A8C5F38346805D0300E8037F
:100720000DD568461C4E3668C6F34046805D010014
:100730001A4800FB03F0B0FBF1F0020003E025488B
:1007400000FB03F00200100000E0144806B070BD8A
:1007500013480068704780B5FFF7FAFF1E490E4A3C
:100760001268C2F3C222895CC84002BD81B00C4944
:100770000968C9084FF47A72B1FBF2F101FB00F18C
:10078000009100BF00994A1E00920029F9D101B0E2
:1007900070470000001002400410024000127A006E
:1007A00018000020140000202410024000004242E3
:1007B000800442421C1002400070004020100240A1
:1007C0006000424200200240382C0008182C00082B
:1007D0000A14000800093D00582C00080148006870
:1007E000704700BF5005002010B504004FF47A7028
:1007F0000D490978B0FBF1F00C490968B1FBF0F044
:1008000000F01AF9002801D001200CE0102C09D2C8
:10081000002221005FF0FF3000F0F2F8044804608D
:10082000002000E0012010BD01040020180000207D
:1008300014000020103A07D330B4B1E83810103A51
:10084000A0E83810F9D230BC530724BFB1E8081033
:10085000A0E8081044BF51F8043B40F8043BD2071D
:1008600024BF31F8022B20F8022B44BF0B78037011
:100870007047121F17D35B0009D151F8043B20F8D1
:10088000023B1B0C121F20F8023BF6D20BE051F882
:10089000043B00F8013B1B0A20F8023B1B0C121F13
:1008A00000F8013BF3D238BF121D521E24BF11F8CD
:1008B000013B00F8013BF8D8704730B50168846807
:1008C0004218416802EB5103C90703D54C4401E0CB
:1008D000491C08D19A4218BF12F9011B01D10C30F2
:1008E00030BD12F8015B002904F8015BF0D4491E09
:1008F000F7D5EFE710F0070356490A684FF6FF01F6
:100900000A4052EA032254490A4352490A60704796
:1009100050480068C0F302207047010049B2002926
:1009200009D4012210F01F018A404C4903005BB238
:100930005B0941F823207047010049B2002909D41E
:10094000012210F01F018A40454903005BB25B0998
:1009500041F82320704710B4020052B2002A05D497
:100960000A01404B040064B21A5508E00A013E4BEC
:10097000040064B214F00F04234403F8042C10BCE8
:10098000704770B4030013F00704D4F10700052882
:1009900001D3042001E0D4F10700251D072D01D269
:1009A000002500E0E51E012616FA00F0401E014079
:1009B000A940012010FA05F56D1E2A4011430800D8
:1009C00070BC704710B50400601EB0F1807F01D389
:1009D00001200EE0601E254908600F215FF0FF3006
:1009E000FFF7B9FF0020224908600720214908606D
:1009F000002010BD10B504002000FFF77BFF10BDE4
:100A00002DE9F04104000D0016000027FFF780FFDC
:100A10008046320029004046FFF7B3FF0100200066
:100A200040B2FFF798FFBDE8F08110B50400200048
:100A300040B2FFF772FF10BD10B504002000FFF7B1
:100A4000C1FF10BD10B50400200040B2FFF774FFD5
:100A500010BD00000CED00E00000FA0500E100E030
:100A600080E200E000E400E018ED00E014E000E0C7
:100A700018E000E010E000E02DE9F04104005FF034
:100A80000008002500260027002C01D1012093E05A
:100A9000A068002801D0207D0028A06A002807D186
:100AA0000020E062002084F82400200000F01DFBFC
:100AB000200000F0B3FAA16AC90676D40100C9B2D9
:100AC000002972D1A16A31F4885151F00201A1626A
:100AD00061680E43E1690E43217B56EA4106A16835
:100AE000B1F5807F02D0A168012902D14FF4807155
:100AF00000E000210D43217D012911D1217B002936
:100B000006D1A169491E55EA413555F4006507E053
:100B1000A16A51F02001A162E16A51F00101E16294
:100B20002168496831F4694129432268516021688C
:100B30008A68DFF8C8140A40324321688A60A168D5
:100B4000B1F5807F02D0A168012902D14FF48071F4
:100B500000E00021B1F5807F03D12169491E09051C
:100B60000F002168C96A31F4700139432268D162EB
:100B700021688A68DFF888140A40B24208D100214F
:100B8000E162A16A31F0020151F00101A16212E0BB
:100B9000A16A31F0020151F01001A162E16A51F045
:100BA0000101E1620121080005E0A16A51F0100194
:100BB000A16201210800C0B2BDE8F0812DE9F04139
:100BC00004000D00160000272068DFF8401488425A
:100BD00004D02068DFF82C14884205D1DFF82804FF
:100BE000006810F4702000E00020002840F09B8096
:100BF00094F82400012801D1022098E0012084F813
:100C00002400200000F0C1F980464046C0B2002810
:100C100040F08580A16ADFF8FC03014051F4807147
:100C2000A1622068DFF8DC13884209D1DFF8D8031D
:100C3000006810F4702F01D1012002E0002000E0D4
:100C4000012000280ED0A06A30F48010A062206835
:100C50004068400523D5A06A30F4005050F480501D
:100C6000A0621CE0A06A50F48010A0622068DFF847
:100C70009C13884204D02068DFF88813884205D18D
:100C8000DFF88403006810F4806000E00020002892
:100C900005D0A06A30F4005050F48050A062A06AE1
:100CA000C00404D5E06A30F00600E06201E00020F4
:100CB000E062002084F824000FF2AD30216A8862DF
:100CC0000FF2F930216AC8620FF20140216A08630D
:100CD0007FF00200216808602068806850F480700E
:100CE0002168886033002A00206810F14C01206AD6
:100CF00000F02FFA2068806810F46020B0F5602FB3
:100D000006D12068806850F4A000216888600CE05B
:100D10002068806850F480102168886005E0002019
:100D200084F8240001E05FF001084046C0B2BDE84D
:100D3000F08110B504002068406880062CD520683A
:100D40000068800728D5A06AC00603D4A06A50F4C2
:100D50000070A0622068806810F46020B0F5602FF9
:100D600013D1207B002810D12068406830F020008B
:100D700021684860A06A30F48070A062A06AC00454
:100D800003D4A06A50F00100A062200000F038FBFC
:100D90007FF012002168086020684068000637D59F
:100DA00020680068400733D5A06AC00603D4A06A53
:100DB00050F40050A0622068806810F4E040B0F564
:100DC000E04F0DD02068406840051AD42068806844
:100DD00010F46020B0F5602F13D1207B002810D1D3
:100DE0002068406830F0800021684860A06A30F4D4
:100DF0008050A062A06AC00503D4A06A50F0010030
:100E0000A062200000F0FDFA7FF00C00216808606D
:100E10002068406840060ED520680068C0070AD5E3
:100E2000A06A50F48030A062200000F0EBFA7FF05E
:100E300001002168086010BD78B402000023002082
:100E4000009092F82400012801D102209BE00120AB
:100E500082F824004868072812D21068446B1F25C6
:100E60004868461E05204643B540AC430D684868B7
:100E7000461E05204643B5402C431068446329E0D4
:100E800048680D2812D21068046B1F254868C61FD9
:100E900005204643B540AC430D684868C61F052091
:100EA0004643B5402C431068046313E01068C46ADD
:100EB0001F254868B0F10D0605204643B540AC43F8
:100EC0000D684868B0F10D0605204643B5402C4337
:100ED0001068C46208680A2814D31068C46807251B
:100EE0000868B0F10A0603204643B540AC438D685C
:100EF0000868B0F10A0603204643B5402C43106849
:100F0000C4600FE01068046907250E68032046439B
:100F1000B540AC438D680E6803204643B5402C4372
:100F2000106804610868102802D00868112825D1CB
:100F30001068364CA0421BD11068806800021DD496
:100F40001068806850F400001468A06008681028D9
:100F500014D12F480068304CB0FBF4F40A2044430D
:100F600000940098002809D00098401E0090F8E7EF
:100F7000906A50F02000906201200300002082F867
:100F800024001800C0B272BC704738B504000025B8
:100F90000020009020688068C0072BD420688068FB
:100FA00050F0010021688860194800681A49B0FBB8
:100FB000F1F000900098002803D00098401E0090A7
:100FC000F8E7FFF70BFC050020688068C00711D424
:100FD000FFF704FC401B0328F6D3A06A50F0100072
:100FE000A062E06A50F00100E062002084F8240072
:100FF000012000E0002032BD00000000FDF7E1FF0D
:10100000FE0E1FFF0028014004240140002401407F
:1010100018000020FEF1FFFF40420F0038B5040029
:10102000002520688068C0071BD5206880684008BC
:10103000400021688860FFF7D1FB050020688068C8
:10104000C0070ED5FFF7CAFB401B0328F6D3A06AE2
:1010500050F01000A062E06A50F00100E062012050
:1010600000E0002032BD000038B50400656AA86ABF
:1010700010F0500F1CD1A86A50F40070A8622868C4
:10108000806810F46020B0F5602F0DD1287B002817
:101090000AD1A86A30F48070A862A86AC00403D498
:1010A000A86A50F00100A862280000F0A9F903E046
:1010B0002000296A096B884731BD000038B504005B
:1010C000656A280000F09FF931BD000038B50400C2
:1010D000656AA86A50F04000A862E86A50F004000F
:1010E000E862280000F090F931BD7047010000224D
:1010F000002901D101202BE00B68DFF85802C3184A
:101100001420B3FBF0F080000864DFF84C02C863E1
:10111000022081F82100086803686FF30D13486806
:10112000034388680343C868034308690343486965
:10113000034388690343C8690343086803600020C8
:101140008863012081F82100002081F82000002020
:1011500070472DE9F04104000D0016001F005FF0FC
:10116000000894F82000012801D102203BE0012072
:1011700084F8200094F8210001282DD1022084F861
:1011800021000020A063206800684008400021681A
:1011900008603B0032002900200000F01BF9E06AE3
:1011A000002806D02068006850F00E002168086012
:1011B0000BE02068006830F00400216808602068B7
:1011C000006850F00A00216808602068006850F04C
:1011D00001002168086004E0002084F8200002205B
:1011E00080464046C0B2BDE8F08170B50400E06BB7
:1011F0000568206806680421206C81400D423ED0BD
:1012000070073CD520680068800605D42068006817
:1012100030F004002168086020685049884201D1FC
:10122000042023E020684E49884201D140201DE07F
:1012300020684C49884202D14FF4806016E0206853
:101240004949884202D14FF480400FE02068474965
:10125000884202D15FF4802008E020684449884237
:1012600002D15FF4800001E05FF0806041490860D6
:10127000E06A00286DD02000E16A884769E0022119
:10128000206C81400D4244D0B00742D520680068F0
:10129000800608D42068006830F00A0021680860E1
:1012A000012084F8210020682C49884201D10220C5
:1012B00023E020682A49884201D120201DE02068CF
:1012C0002849884202D14FF4007016E02068264970
:1012D000884202D14FF400500FE020682349884231
:1012E00002D15FF4003008E020682149884202D131
:1012F0005FF4001001E05FF000701E4908600020FC
:1013000084F82000A06A002823D02000A16A884722
:101310001FE00821206C81400D421AD0300718D5FB
:101320002068006830F00E00216808600121206C00
:101330008140E06B41600120A063012084F821001E
:10134000002084F82000206B002802D02000216BB0
:10135000884770BDF8FFFDBF000002400800024052
:101360001C0002403000024044000240580002408D
:101370006C0002400400024010B40300002493F803
:101380002000012801D1022022E0012083F8200062
:1013900093F82100012814D10800C0B2002805D01C
:1013A000022807D004D3032806D007E09A620AE097
:1013B000DA6208E01A6306E05A6304E001200400E0
:1013C00001E001200400002083F820002000C0B2CA
:1013D00010BC704730B40125046CA540C46B656037
:1013E000046863604468102C04D10468A260046837
:1013F000E16003E00468A1600468E26030BC70470B
:101400007047704770477047704701022DE9F041FF
:1014100090B0DFF85484D8F8FC0F40F00400C8F80E
:10142000FC0FD8F8FC0F00F0040000900098012099
:101430000090019003200390002002906946DFF89D
:101440002C0400F027FAD8F8F80F40F00100C8F893
:10145000F80FD8F8F80F00F0010000900098DFF8BE
:101460001044C4F80080102060600020A060E0609C
:10147000A0614FF4807626614FF4806767614FF476
:101480000055E5612046FFF731FE002840F08C80D2
:1014900008F13C0060641020A0640020E06480201B
:1014A00020650020E0656665A765256604F14400B7
:1014B000FFF71CFE002877D108F16400C4F888000B
:1014C0001020C4F88C000020C4F89000C4F89400E8
:1014D000C4F8A000C4F89860C4F89C70C4F8A45084
:1014E00004F18800FFF702FE00285DD10FF22122EF
:1014F000002104F18800FFF73FFF0FF29122022143
:1015000004F18800FFF738FF012200211120FFF7C6
:1015100077FA1120FFF789FAD648016841F00101F6
:101520000160006800F00100009000984FF08040DA
:10153000C4F89C031D20C4F8A803CF480068CF4915
:10154000B0FBF1F0401E80B2C4F8A0030020C4F844
:10155000AC03C4F8A40304F5677000F0CFFA18BB1D
:1015600008900A9008200990002208A904F56770E5
:1015700000F034FBC0B901900390152002900422C2
:1015800001A904F5677000F029FB68B90222002167
:101590001C20FFF735FA1C20FFF747FA042084F8D7
:1015A000E40310B0BDE8F081012084F8E40310B03A
:1015B000BDE8F08170B5AE4C94F8E4030428FBD18B
:1015C000022084F8E4034FF080411D20C86201220C
:1015D000206C02FA00F0E36B586023684FF4B47596
:1015E0005D606068102803D1A5489860A7A002E05C
:1015F000A6A09860A248D860D4F8840002FA00F04F
:10160000D4F880607060666C7560A06C102804D19E
:101610009B48B06004F1CC0003E004F1CC00B06062
:101620009748F060D4F8C8008240D4F8C400426003
:10163000D4F888004560D4F88C20102A04D1904A50
:10164000826000BF92A202E091A282608C4AC260D6
:101650008C4AF02515604FF4702515604FF07065C9
:101660001560026842F00E0202601A6842F0010240
:101670001A60326842F001023260026842F00102F0
:10168000026000200861D4F89C03C16841F48071B5
:10169000C160C16841F40071C160C16841F48061FA
:1016A000C160012200214FF0804000F0B3FB012215
:1016B00004214FF0804000F0ADFBD4F89C031D21C5
:1016C0004162016841F00101016070BD6E48FFF7A1
:1016D0008CBD00B581B01C20FFF7B4F96448D0F888
:1016E0009C130A6A41F211131A4202BF0A6A40F2BD
:1016F00044431A4203D10A68520852000A60CA6879
:1017000052085200CA60042180F8E41301B000BD01
:1017100010B51120FFF796F9554C2068016849086B
:1017200049000160606C0168490849000160D4F813
:1017300088000168490849000160D4F89C03C16829
:1017400021F48071C160C16821F40071C160C16879
:1017500021F48061C160002200214FF0804000F040
:1017600059FB002204214FF0804000F053FB4FF062
:10177000804040F2DC51C16200214162D4F89C03F8
:10178000C16841F00101C16010BD0000FEE700002A
:10179000DFF8DC0090F8E4130429FBD100F1CC025F
:1017A0000F214FF6FE7C042013880CEA03031380FC
:1017B000138A0CEA03031382138C0CEA03031384C9
:1017C00053880CEA03035380538A0CEA03035382C1
:1017D000538C0CEA03035384121D401EE4D12032C3
:1017E000491EE0D17047002800D07047F0B40F299F
:1017F0001F4890F8E44335D2042CFDD1002401EBBE
:101800004105E90000EB410000F1CC0104980D888E
:101810004FF6FE7635400D800E8A4FF6FE773E403D
:101820000E820F8C4FF6FE7C0CEA07070F8403FA3A
:1018300004FC4FEAEC1C0CF0010C4CEA05050D8091
:1018400002FA04F5ED1105F001052E430E8200FAAF
:1018500004F5ED1105F001052F430F84641C891C6C
:10186000082CD4DBF0BC70471C000240000801408B
:101870001C0000201C1002401800002000366E01E1
:101880000C08014004000240A4000020FFFF0000FB
:10189000000001022DE9F84302005FF0000E5FF046
:1018A0000008086830FA0EF0002800F004810120DA
:1018B00010FA0EF003000868184004009C4240F043
:1018C000F7804868002831D0012820D0022825D090
:1018D00003283CD011281DD0122823D0DFF8DCC10A
:1018E000604523D0DFF8D8C160451FD0DFF8D4C1F0
:1018F00060451BD0DFF8D0C1604517D0DFF8CCC100
:10190000604513D0DFF8C8C160450FD022E0C86839
:1019100080461FE0C868001D80461BE0C86808308C
:10192000804617E0C8680C30804613E088680028BD
:1019300002D10420804609E08868012803D10820EC
:101940008046136102E008208046536102E00020D7
:101950008046FFE7B4F5807F01D2160000E0161D37
:10196000B4F5807F02D25FEA8E0702E0BEF108077D
:10197000BF00D6F800C00F20B8403CEA000C18FAAF
:1019800007F050EA0C0CC6F800C04868C00040F1EF
:101990008F805048006850F00100DFF838C1CCF863
:1019A00000004C48006810F00100009000984A4880
:1019B000F4465FEA9C0C50F82CC05FF00F091EF053
:1019C0000300C0B2800019FA00F93CEA090C434850
:1019D000824202D15FF0000913E04148824202D105
:1019E0005FF001090DE03F48824202D15FF0020939
:1019F00007E03D48824202D15FF0030901E05FF059
:101A0000040965461EF00300C0B2800019FA00F90F
:101A100059EA05053048F4465FEA9C0C40F82C5022
:101A20004868C00307D5314800682043DFF8BCC0D0
:101A3000CCF8000006E02D480068A043DFF8ACC0F9
:101A4000CCF800004868800307D529480068204387
:101A5000DFF89CC0CCF8000006E025480068A043F1
:101A6000DFF88CC0CCF800004868C00207D52148D8
:101A700000682043DFF87CC0CCF8000006E01D4879
:101A80000068A043DFF86CC0CCF800004868800212
:101A900007D5194800682043DFF85CC0CCF8000087
:101AA00006E015480068A043DFF84CC0CCF8000001
:101AB0001EF1010EF5E6BDE8F183000000001110F3
:101AC0000000121000002110000022100000311050
:101AD00000003210181002400800014000080140C8
:101AE000000C0140001001400014014000040140BE
:101AF00004040140080401400C04014010B5040036
:101B0000002C01D101202FE094F83D00002805D1E0
:101B1000002084F83C00200000F08EF9022084F8B8
:101B20003D00211D206800F089F8012084F846005E
:101B3000012084F83E00012084F83F00012084F851
:101B40004000012084F84100012084F84200012077
:101B500084F84300012084F84400012084F8450003
:101B6000012084F83D00002010BD010091F83D00E7
:101B7000012801D001202AE0022081F83D000868F8
:101B8000DFF84C3098420DD00868B0F1804F09D092
:101B90000868DFF84030984204D00868DFF8383031
:101BA00098420DD10868806810F007000200062AEC
:101BB0000CD00868006850F001000B68186005E060
:101BC0000868006850F001000B681860002070473A
:101BD000002C0140000400400008004070B50400E3
:101BE0000D00160094F83C00012801D1022024E0E9
:101BF000012084F83C003000002806D0042809D0D9
:101C000008280CD00C280FD013E02900206800F021
:101C100047F80EE02900206800F06FF809E029007D
:101C2000206800F09CF804E02900206800F0C8F863
:101C3000FFE7002084F83C00002070BD0368724A72
:101C4000904208D0B0F1804F05D0704A904202D047
:101C50006F4A904203D133F070034A6813436A4AD3
:101C6000904208D0B0F1804F05D0684A904202D02F
:101C7000674A904203D133F44073CA68134333F088
:101C800080034A69134303608A68C2620A688262F9
:101C90005D4A904201D10A690263012242617047A4
:101CA00030B4026A520852000262046A45688369CD
:101CB00033F070039B089B000A68134334F002045E
:101CC0008A681443504A904205D134F00804CA6827
:101CD000144334F004044C4A904207D135F4807523
:101CE00035F400754A6915438A6915434560836177
:101CF0004A684263046230BC704730B4026A32F012
:101D000010020262036A4468826932F4E04232F4EB
:101D100040720D6852EA052233F020038D6853EAC1
:101D20000513394DA84206D133F08003CD6853EA3C
:101D3000051333F04003344DA84209D134F48064D4
:101D400034F400644D6954EA85048D6954EA8504CD
:101D5000446082614D688563036230BC704730B473
:101D6000026A32F480720262046A4568C36933F021
:101D700070039B089B000A68134334F400748A685C
:101D800054EA0224204A904206D134F40064CA681E
:101D900054EA022434F480641B4A904209D135F499
:101DA000805535F400554A6955EA02158A6955EAA5
:101DB00002154560C3614A68C263046230BC704763
:101DC00030B4026A32F480520262036A4468C26923
:101DD00032F4E04232F440720D6852EA052233F4E4
:101DE00000538D6853EA0533074DA84204D134F4FB
:101DF00080444D6954EA85144460C2614D680564AD
:101E0000036230BC70470000002C01400004004019
:101E10000008004030B4012411F01F0314FA03F34A
:101E2000046A9C430462046A11F01F0512FA05F566
:101E30002C43046230BC70477047000080B500F04E
:101E400023F8002801D001201DE000F0CBF8002885
:101E500001D0012017E0934800F03EF9002801D09E
:101E6000012010E09048FFF780FE002801D00120FB
:101E700009E040228D498B48FEF7A0FE002801D0E2
:101E8000012000E0002002BD80B58CB010220021AE
:101E900008A800F099F90C22002101A800F094F99B
:101EA0001022002104A800F08FF98148006850F446
:101EB00000707F4908607E48006810F40070009050
:101EC00000987B48006850F008007949086078481D
:101ED000006810F00800009000980120089003208E
:101EE000099008A97348FFF7D5FC73486D4908604D
:101EF00000206C49486000206A49886000206949D8
:101F000008730120674908610020664908750120AF
:101F1000644988615FF400206249C8616148FEF746
:101F2000ABFD002801D001205AE0082001900120DB
:101F300002900020039001A95A48FEF77DFF002877
:101F400001D001204CE0022004904FF400400690A4
:101F500004A800F043F95948006850F001005749BF
:101F600008605648006810F001000090009854483E
:101F70005449086000205349486000205149886056
:101F800080205049C8604FF480704E4908614FF47A
:101F900080604C49486120204A4988614FF40050D4
:101FA0004849C8614748FFF7A1F8002801D001203F
:101FB00016E044483B4908623A48424948620022D8
:101FC00003210B20FEF71CFD0B20FEF72EFD002247
:101FD00002211220FEF714FD1220FEF726FD00203C
:101FE0000DB000BD1FB53848006850F002003649FA
:101FF00008603548006810F00200009000983348EF
:1020000000683349B0FBF1F0441E324826490860AD
:1020100009202549C860200080B22349486000207B
:102020002149086100202049886000201E4948613C
:1020300000201D4988611C48FFF760FD002801D081
:1020400001200CE0202001900020029001A91648F8
:1020500000F0E4F9002801D0012000E0002004B0E5
:1020600010BD10B40023190089B2402917D20F49BE
:102070001C00A4B231F91410B1F500610A0011007E
:1020800009B2002906D5140024B25FF0FF3101FB2C
:10209000040002E0110009B208185B1CE3E78009A4
:1020A00010BC7047100500208404002004040020A8
:1020B00018100240000C014000240140141002409E
:1020C00008000240CC0400201C1002401800002030
:1020D00000350C0000040040F8B505000027002082
:1020E000009095F82400012801D1022069E0012028
:1020F00085F824002800FEF791FF06003000C0B2EA
:10210000002859D1A86A30F4885050F00200A86223
:10211000022000F0EAF8DFF8AC100968B1FBF0F03B
:10212000400000900098002803D00098401E0090C6
:10213000F8E72800FEF729FF2868806850F00800BB
:1021400029688860FEF74AFB070028688068000756
:102150000FD5FEF743FBC01B0B28F6D3A86A30F05F
:10216000020050F01000A862002085F82400012031
:1021700027E02868806850F0040029688860FEF72E
:102180002DFB04002868806840070FD5FEF726FB6A
:10219000001B0B28F6D3A86A30F0020050F01000A4
:1021A000A862002085F8240001200AE0A86A30F027
:1021B000020050F00100A862002085F824003000E1
:1021C000C0B2F2BD1800002010B5044610460A4601
:1021D0000146204600F060F9204610BDF8B5050024
:1021E000002600242878C00767D5002780480068AB
:1021F000C0000DD47E48006850F080507C490860D3
:102200007B48006810F08050009000980120070083
:1022100078480068C00513D47648006850F4807090
:1022200074490860FEF7DAFA060072480068C005D3
:1022300006D4FEF7D3FA801B6528F6D3032053E0BB
:102240006D48006810F440700400002C23D06868CA
:1022500010F4407084421ED06748006830F440702B
:102260000400012065490860002064490860624854
:102270000460E0070FD5FEF7B1FA06005E4800687B
:10228000800708D4FEF7AAFA801B41F28931884200
:10229000F4D3032028E05848016831F4407168689D
:1022A0000143554801603800C0B2012805D15048AB
:1022B000006830F080504E4908602878800707D5C4
:1022C0004F48016831F44041A86801434C4801601F
:1022D0002878C00607D54A48016831F48001E868CB
:1022E0000143474801600020F2BD2DE9F04385B06D
:1022F000040001A843491022FEF79CFA42480088D6
:10230000ADF800000025002600275FF000085FF010
:1023100000092000012832D0022858D0102862D1AC
:1023200037480068804639480068C00126D501A8B2
:10233000C8F38341405C07005FEAC8300FD56846A8
:102340002F490968C1F34041405C05005FEAC8308D
:1023500009D52F48B0FBF5F07843060003E02D487F
:1023600000FB07F0060026480068400201D5B14690
:1023700004E070000321B0FBF1F0814633E01E4819
:102380000068804640F2023010EA0800B0F5817F14
:1023900003D14FF40040814618E018F44070B0F5C6
:1023A000007F07D11C480068800703D549F64040EC
:1023B00081460BE018F44070B0F5407F06D1134819
:1023C0000068800302D54FF2244081460BE0FEF7FF
:1023D000C2F90B490968C1F38131491C4900B0FBBE
:1023E000F1F08146FFE7484605B0BDE8F083000004
:1023F0001C10024000700040201002404004424285
:1024000004100240282C0008921800080010024016
:1024100000127A0000093D002410024030B402008E
:1024200092F83C00012801D102202CE0012082F822
:102430003C00022082F83D00106843681068846800
:1024400033F07003086803431068436010680F4D51
:10245000A8420BD01068B0F1804F07D010680C4D27
:10246000A84203D010680B4DA84205D134F0800477
:102470004868044310688460012082F83D00002011
:1024800082F83C00002030BC70470000002C014066
:10249000000400400008004062F30F2262F31F4274
:1024A000401810F0030308D0C91A1FD3DB0748BF38
:1024B00000F8012D28BF20F8022D130030B4144677
:1024C0001546103928BF20E93C00FAD8490728BF33
:1024D00020E90C0048BF40F8042D890028BF20F8EF
:1024E000022D48BF00F8012D30BC7047C91818BF35
:1024F00000F8012DCB0728BF00F8012D7047000020
:1025000000206C49887100206A49A1F8070000206A
:1025100068494871002067490871664800790521BB
:10252000B0FBF1F201FB1200634951F82000614950
:1025300008600020704738B5040060480078401CEF
:102540005E4908702000C0B20F2880F0948059487E
:1025500044715848807957494979884208D255488A
:10256000407954498871FA205249A1F807001EE0C9
:102570005048B0F80700002807D04E48B0F80700D0
:10258000401E4C49A1F8070011E04A488079002814
:102590000DD04A480078022190FBF1F201FB1200B5
:1025A000002804D043488079401E42498871FFF7D3
:1025B000EFF8002528002100C0B2C9B288424ED2EF
:1025C0003C48006890F82D00012826D13948016860
:1025D0002A00D2B20320424301EB0200807860431C
:1025E000C0B20090334801682A00D2B203204243AF
:1025F00001EB020043786343DBB22E4801682A00F6
:10260000D2B2032042438A5C6243D2B22900C9B2EB
:1026100089B20020FFF7E7F81FE0264801682A008A
:10262000D2B20320424301EB02008078009021489F
:1026300001682A00D2B20320424301EB0200437832
:102640001C4801682A00D2B2032042438A5C290058
:10265000C9B289B20020FFF7C6F86D1CAAE70020B6
:1026600000900023FF221348817989B20020FFF7F0
:10267000BAF8FEF79FFF31BD0E480079401C0D49A6
:1026800008710C4800790521B0FBF1F201FB120042
:10269000094951F8200007490860704780B500F0EB
:1026A00011F80749096800F01BF800F085F8C0B27E
:1026B00002BD00004005002000000020540500205D
:1026C000602C000850B1B0FA80F18840C1F19D0142
:1026D000C905020672F1004241EB1020704700006C
:1026E000FF2212EAD05C1DBF12EAD15394459342F7
:1026F0002BE09C44D30780EA010243EA002043EA2E
:1027000001211A40A1FB0030C04238BF00187CF103
:102710007F010BDBFE294ADA5B0842EAC15153EA2A
:10272000006373F1004C51EB10207047D1F1080C9D
:10273000DCF120012FDB5B0810FA01F10B4320FADA
:102740000CF073F100415041704794451CBF02EA00
:10275000D153934280EA010202F000421DD04000B2
:1027600019D0490017D05BB9634514D00902B1FAFA
:1027700081F39940BCEB030CC00140F00040C1E77D
:102780000002B0FA80FC10FA0CF0B3EB0C0CC9019B
:1027900041F00041B6E71000704740000AD0490000
:1027A00008D010F1807F94BF11F1807F02E042F0E9
:1027B000FF407047D0437047C0F3C751D1F19E012D
:1027C00008DD020242F00042CA4002EBE07282EAF7
:1027D000E07070477FEAE07080F0004070470000D2
:1027E00080B500F07BF800F01CF800F053F8FEF71D
:1027F0000DFEFFF785FE00F085F8FFF71FFBFFF7E2
:1028000030FC3249086031480068FFF747FF304923
:1028100008702F480078FFF78EFE012000F0A0F826
:10282000EDE700B58FB02822002105A8FFF7CCFC0A
:10283000142200216846FFF7C7FC012005905FF4D1
:1028400080300690002007900120099002200C9013
:102850005FF480300D905FF4E0100E9005A8FDF756
:1028600045FC002801D000F037F80F20009002202E
:102870000190002002904FF48060039000200490AB
:1028800002216846FDF773FE002801D000F024F80D
:102890000FB000BD81B00F48006850F010000D4926
:1028A00008600C48006810F010000090009809487B
:1028B000006850F02000074908600648006810F0E2
:1028C00020000090009801B0704700004C050020E7
:1028D000550500201810024072B6FEE780B5084882
:1028E000006850F01000064908600320FEF782F8E7
:1028F0000020FDF779FF00F047F8002002BD00003E
:102900000020024000B585B01048006850F0080073
:102910000E4908600D48006810F00800009000980B
:102920004FF4006001900A4802900020039001A932
:102930000848FEF7AFFF002200212820FEF760F8CC
:102940002820FEF772F805B000BD00001810024004
:1029500000002110000C014080B5FFF78DFE01BD85
:1029600070B50400FDF73AFF0500260016F1010FCF
:1029700002D0044800788619FDF730FF401BB042B2
:10298000FAD370BD0104002081B00D48006850F0FA
:1029900001000B4908600A48006810F0010000902F
:1029A00000980848006850F08050064908600548C3
:1029B000006810F080500090009801B0704700BF90
:1029C000181002401C100240FEE7FEE7FEE7FEE79B
:1029D000FEE770477047704780B500F027F801BDEB
:1029E00080B510480068000505D54FF400600D491A
:1029F0000860FFF7B1FF01BD80B50A480068800795
:102A000004D5022007490860FFF7A6FF01BD80B585
:102A10000548FEF78EF901BD80B50348006AFEF750
:102A2000E4FB01BD140401401005002003480168C7
:102A300003480078411801480160704750050020A4
:102A40000104002030B4002512E050F8042BD30715
:102A500044BF4A44521E091F042942F8045BFAD2BB
:102A600013468C0744BF15809B1CC90748BF1D70C7
:102A700050F8041B0029E8D130BC704700FF00006B
:102A8000FF0000FF0000FF0000FF0000FF0000FF4C
:102A90000000FF0000FF0000FF00FF8000FF80003B
:102AA000FF8000FF8000FF0000000000FF0000FF2B
:102AB0000000FF0000FF0000FF0000FF0000FF001B
:102AC00000FF0000FF0000FF0000FF0000FF00000B
:102AD000FF0000FF0000FF000000000000FF0000FA
:102AE000FF0000FF0000FF0000FF0000FF0000FFEC
:102AF0000000FF0000FF0000FF0000FF0000FF00DB
:102B000000FF0000FF0000FF000000000000FF00C9
:102B100000FF0000FF0000FF0000FF0000FF0000BA
:102B2000FF0000FF0000FF0000FF0000FF0000FFAB
:102B30000000FF0000FF0000FF0000000000110087
:102B40000011000011000011000011000011000030
:102B5000110000110000110000110000110000110F
:102B600000001100001100001101000010B507491C
:102B700079441831064C7C44163404E00A68081D78
:102B8000114488470146A142F8D110BD0800000059
:102B900024000000B1FEFFFF5401000004040020E7
:102BA0000000000017DDFFFF520100005C00000084
:102BB0000000002000F00DF8002801D0FFF7D6FF3C
:102BC000AFF300800020AFF30080FFF709FE00F0B4
:102BD00002F80120704700F001B8000007463846AF
:102BE00000F002F8FBE7000080B5AFF30080024A76
:102BF00011001820ABBEFBE7260002000548014685
:102C000003B4684680F30988AFF30080AFF3008017
:102C1000FFF7D0FFA5EDF5FE02030405060708093E
:102C20000A0B0C0D0E0F101002030405060708090D
:102C30000A0B0C0D0E0F1010000000000000000029
:102C400001020304060708090148804701480047BC
:102C5000F92C0008FD2B000800000000010203040D
:102C60000000F03BFFF7FEBFFFF7FEBFFFF7FEBF20
:102C7000FFF7FEBFFFF7FEBFFFF7FEBFFFF7FEBF88
:102C8000FFF7FEBFFFF7FEBFFFF7FEBFFFF7FEBF78
:102C9000FFF7FEBFFFF7FEBFFFF7FEBFFFF7FEBF68
:102CA000FFF7FEBFFFF7FEBFFFF7FEBFFFF7FEBF58
:102CB000FFF7FEBFFFF7FEBFFFF7FEBFFFF7FEBF48
:102CC000FFF7FEBFFFF7FEBFFFF7FEBFFFF7FEBF38
:102CD000FFF7FEBFFFF7FEBFFFF7FEBFFFF7FEBF28
:102CE000FFF7FEBFFFF7FEBFFFF7FEBFFFF7FEBF18
:102CF000FFF7FEBFFFF7FEBF7047147C2A0008AC49
:102D00002A0008DC2A00080C2B00083C2B000810C5
:102D1000FC000124F4810081008100810081008198
:082D200000810094000105018F
:0400000508002BFDC7
:00000001FF
